:0400000071EF3CF070
:1078B7000100000001F19E000E8A6E000E896E0025
:1078C7000E8B6E000E0F015C6F000E5B6F000E5D7E
:1078D7006F93809480000E926E1200B70EF66E784A
:1078E7000EF76E000EF86E00EE01F010EE05F009CF
:1078F70000F5CFEEFFE550E150FAE1000EF86E001B
:107907000186EF3CF05EEC3CF081B08DEF3CF08FF0
:10791700EF3CF0B6EF3CF04E0E086EEB0EE82EFE95
:10792700D7082EFCD700F00528056E050E0518D8D8
:10793700A4A0EF3CF0A2EF3CF0B6EF3CF0010E053F
:107947006EB6EF3CF035EC3FF088EF3CF0D5EC3C01
:10795700F088EF3CF06AEC3EF088EF3CF09FEC3D9E
:10796700F088EF3CF00550086E096A0950000AD804
:10797700B4C0EF3CF088EF3CF00850010AD8B4A639
:10798700EF3CF0030AD8B4AAEF3CF0010AD8B4AE32
:10799700EF3CF0070AD8B4B2EF3CF088EF3CF000B8
:1079A700EF00F089680104021003100410D8A4DF67
:1079B700EF3CF0E1EF3CF0FBEF3CF0100E076E39C7
:1079C7000E066E0E0EE82EFED7062EFCD7072EFAF1
:1079D700D7000E896E100E076E390E066E0E0EE872
:1079E7002EFED7062EFCD7072EFAD76FEF3DF002F3
:1079F7000E0118021003100410D8A405EF3DF0077C
:107A0700EF3DF021EF3DF0080E076E9D0E066E0666
:107A17000EE82EFED7062EFCD7072EFAD7000E89C2
:107A27006E080E076E9D0E066E060EE82EFED70632
:107A37002EFCD7072EFAD76FEF3DF0030E01180281
:107A47001003100410D8A42BEF3DF02DEF3DF047A5
:107A5700EF3DF0040E076ECF0E066E020EE82EFE07
:107A6700D7062EFCD7072EFAD7000E896E040E070D
:107A77006ECF0E066E020EE82EFED7062EFCD70737
:107A87002EFAD76FEF3DF0040E0118021003100411
:107A970010D8A451EF3DF053EF3DF06FEF3DF002EA
:107AA7000E076E860E066E990EE82EFED7062EFC82
:107AB700D7072EFAD700F0000E896E020E076E86E2
:107AC7000E066E990EE82EFED7062EFCD7072EFA65
:107AD700D700F06FEF3DF082A074EF3DF076EF3DF9
:107AE700F09EEF3DF04E0E066EEB0EE82EFED7062B
:107AF7002EFCD700F0010E0124016E000E022002B9
:107B07006E000E0320036E000E0420046E050E01A6
:107B170018021003100410D8A494EF3DF096EF3D1F
:107B2700F09EEF3DF0010E016E000E026E000E0397
:107B37006E000E046E1200990E896E010402100386
:107B4700100410D8A4AAEF3DF0ACEF3DF0C6EF3D0E
:107B5700F0100E076E390E066E0E0EE82EFED706D3
:107B67002EFCD7072EFAD7000E896E100E076E3936
:107B77000E066E0E0EE82EFED7062EFCD7072EFA3F
:107B8700D73AEF3EF0020E0118021003100410D886
:107B9700A4D0EF3DF0D2EF3DF0ECEF3DF0080E073B
:107BA7006E9D0E066E060EE82EFED7062EFCD70734
:107BB7002EFAD7000E896E080E076E9D0E066E060A
:107BC7000EE82EFED7062EFCD7072EFAD73AEF3E41
:107BD700F0030E0118021003100410D8A4F6EF3DAD
:107BE700F0F8EF3DF012EF3EF0040E076ECF0E06F1
:107BF7006E020EE82EFED7062EFCD7072EFAD70008
:107C07000E896E040E076ECF0E066E020EE82EFE6C
:107C1700D7062EFCD7072EFAD73AEF3EF0040E010F
:107C270018021003100410D8A41CEF3EF01EEF3EFC
:107C3700F03AEF3EF0020E076E860E066E990EE8DA
:107C47002EFED7062EFCD7072EFAD700F0000E8996
:107C57006E020E076E860E066E990EE82EFED7068A
:107C67002EFCD7072EFAD700F03AEF3EF082A03F5E
:107C7700EF3EF041EF3EF069EF3EF04E0E066EEB41
:107C87000EE82EFED7062EFCD700F0010E012401C8
:107C97006E000E0220026E000E0320036E000E041B
:107CA70020046E050E0118021003100410D8A45FFB
:107CB700EF3EF061EF3EF069EF3EF0010E016E001E
:107CC7000E026E000E036E000E046E1200660E8921
:107CD7006E0104021003100410D8A475EF3EF0776C
:107CE700EF3EF091EF3EF0100E076E390E066E0E66
:107CF7000EE82EFED7062EFCD7072EFAD7000E89E0
:107D07006E100E076E390E066E0E0EE82EFED706A3
:107D17002EFCD7072EFAD705EF3FF0020E01180207
:107D27001003100410D8A49BEF3EF09DEF3EF0B770
:107D3700EF3EF0080E076E9D0E066E060EE82EFE4D
:107D4700D7062EFCD7072EFAD7000E896E080E0726
:107D57006E9D0E066E060EE82EFED7062EFCD70782
:107D67002EFAD705EF3FF0030E0118021003100497
:107D770010D8A4C1EF3EF0C3EF3EF0DDEF3EF004B4
:107D87000E076ECF0E066E020EE82EFED7062EFCED
:107D9700D7072EFAD7000E896E040E076ECF0E0690
:107DA7006E020EE82EFED7062EFCD7072EFAD70551
:107DB700EF3FF0040E0118021003100410D8A4E7D7
:107DC700EF3EF0E9EF3EF005EF3FF0020E076E865B
:107DD7000E066E990EE82EFED7062EFCD7072EFA52
:107DE700D700F0000E896E020E076E860E066E999A
:107DF7000EE82EFED7062EFCD7072EFAD700F00581
:107E0700EF3FF082A00AEF3FF00CEF3FF034EF3F77
:107E1700F04E0E066EEB0EE82EFED7062EFCD700B0
:107E2700F0010E0124016E000E0220026E000E0307
:107E370020036E000E0420046E050E0118021003C5
:107E4700100410D8A42AEF3FF02CEF3FF034EF3F97
:107E5700F0010E016E000E026E000E036E000E049E
:107E67006E1200AA0E896E0104021003100410D8C6
:107E7700A440EF3FF042EF3FF05CEF3FF0100E07FA
:107E87006E390E066E0E0EE82EFED7062EFCD707AD
:107E97002EFAD7000E896E100E076E390E066E0E7B
:107EA7000EE82EFED7062EFCD7072EFAD7D0EF3FC7
:107EB700F0020E0118021003100410D8A466EF3F59
:107EC700F068EF3FF082EF3FF0080E076E9D0E0659
:107ED7006E060EE82EFED7062EFCD7072EFAD70021
:107EE7000E896E080E076E9D0E066E060EE82EFEB4
:107EF700D7062EFCD7072EFAD7D0EF3FF0030E0197
:107F070018021003100410D8A48CEF3FF08EEF3F37
:107F1700F0A8EF3FF0040E076ECF0E066E020EE8D4
:107F27002EFED7062EFCD7072EFAD7000E896E0431
:107F37000E076ECF0E066E020EE82EFED7062EFC3B
:107F4700D7072EFAD7D0EF3FF0040E01180210031F
:107F5700100410D8A4B2EF3FF0B4EF3FF0D0EF3FDA
:107F6700F0020E076E860E066E990EE82EFED706F5
:107F77002EFCD7072EFAD700F0000E896E020E07E7
:107F87006E860E066E990EE82EFED7062EFCD707D4
:107F97002EFAD700F0D0EF3FF082A2D5EF3FF0D70F
:107FA700EF3FF0FFEF3FF04E0E066EEB0EE82EFEB2
:107FB700D7062EFCD700F0010E0124016E000E0239
:107FC70020026E000E0320036E000E0420046E05CF
:107FD7000E0118021003100410D8A4F5EF3FF0F7B4
:107FE700EF3FF0FFEF3FF0010E016E000E026E0053
:097FF7000E036E000E046E120070
:020000040030CA
:0E0000000003583CFFD184FF0FC00FE00F40FB
:00000001FF
