:040000000CEF00F011
:100008000582000E026E000E016EF292059211003A
:100018003DEF00F0000E0F015E6F000E8C6E000EBB
:10002800956E8A909380D39EF288F292F19CF28E1C
:10003800000E026E010E016E8C68020E046E860EB2
:10004800036E990EE82EFED7032EFCD7042EFAD79E
:1000580000F030EF00F0030001040210D8B437EFCD
:1000680000F039EF00F02FEF00F020EF00F00CEF78
:0C00780000F00590059200010EEF00F072
:020000040030CA
:0E0000000003583CFFD180FF0FC00FE00F40FF
:00000001FF
