:040000002BEF00F0F2
:100008001E82F6CF0BF0F7CF0CF0F8CF0DF0F5CF3E
:100018000EF0F2A412EF00F014EF00F021EF00F060
:10002800050E046E020E78EC04F0010E056E080E43
:10003800066EDFEC05F0F29289900EC0F5FF0DC058
:10004800F8FF0CC0F7FF0BC0F6FF1E9211003EEF41
:0200580006F0B0
:10080000005465726D696E61646F003320736567B3
:0D081000756E646F005449454D504F000057
:10081E00136E1304D8A416EF04F018EF04F029EFAA
:10082E0004F012507F0F166E16380F0B146E165002
:10083E000F0B156E145055EC06F0155055EC06F0D6
:10084E0077EF04F0020E1318D8A430EF04F032EF55
:10085E0004F043EF04F01250BF0F166E16380F0B54
:10086E00146E16500F0B156E145055EC06F01550F5
:10087E0055EC06F077EF04F0030E1318D8A44AEFE8
:10088E0004F04CEF04F05DEF04F01250930F166E6F
:10089E0016380F0B146E16500F0B156E145055ECB8
:1008AE0006F0155055EC06F077EF04F0040E131811
:1008BE00D8A464EF04F066EF04F077EF04F0125062
:1008CE00D30F166E16380F0B146E16500F0B156EC7
:1008DE00145055EC06F0155055EC06F077EF04F079
:1008EE001200056E0504D8A47FEF04F081EF04F02A
:1008FE0092EF04F004507F0F086E08380F0B066E4F
:10090E0008500F0B076E065065EC06F0075065ECAD
:10091E0006F0E0EF04F0020E0518D8A499EF04F0EB
:10092E009BEF04F0ACEF04F00450BF0F086E0838D4
:10093E000F0B066E08500F0B076E065065EC06F097
:10094E00075065EC06F0E0EF04F0030E0518D8A48E
:10095E00B3EF04F0B5EF04F0C6EF04F00450930FBC
:10096E00086E08380F0B066E08500F0B076E0650F8
:10097E0065EC06F0075065EC06F0E0EF04F0040EAF
:10098E000518D8A4CDEF04F0CFEF04F0E0EF04F09B
:10099E000450D30F086E08380F0B066E08500F0B5D
:1009AE00076E065065EC06F0075065EC06F0E0EFBA
:1009BE0004F01200959495969598959A959C959E0F
:1009CE00000E58EC05F04E0E126EEB0EE82EFED712
:1009DE00122EFCD700F0030E55EC06F0140E126E1C
:1009EE007A0EE82EFED7122EFCD7030E55EC06F02B
:1009FE002B0E126EDA0EE82EFED7122EFCD700D07A
:100A0E00030E55EC06F0020E55EC06F0020E55ECF8
:100A1E0006F0080E55EC06F0000E55EC06F00C0E26
:100A2E0055EC06F0000E55EC06F0060E55EC06F0F1
:100A3E008FEC06F01200E1EC04F075EC06F083EC9E
:100A4E0006F08FEC06F0010E126E010E0FEC04F0A4
:100A5E00150E136E080E146EB4EC05F082A03AEF6C
:100A6E0005F03CEF05F035EF05F0C30E196ECD0E17
:100A7E00E82EFED7192EFCD700F0540ED66E890E36
:100A8E00D76E050E126E020E0FEC04F00B0E136EE7
:100A9E00080E146EB4EC05F0898035EF05F02BEFDF
:100AAE0000F00F6E0FA05EEF05F060EF05F063EF44
:100ABE0005F08C8864EF05F08C980FA269EF05F0B5
:100ACE006BEF05F06EEF05F08C8A6FEF05F08C9AE8
:100ADE000FA474EF05F076EF05F079EF05F08C8C2E
:100AEE007AEF05F08C9C0FA67FEF05F081EF05F0F5
:100AFE0084EF05F08C8E85EF05F08C9E1200016E52
:100B0E0001A08CEF05F08EEF05F091EF05F08C88CB
:100B1E0092EF05F08C9801A297EF05F099EF05F092
:100B2E009CEF05F08C8A9DEF05F08C9A01A4A2EF44
:100B3E0005F0A4EF05F0A7EF05F08C8CA8EF05F0FB
:100B4E008C9C01A6ADEF05F0AFEF05F0B2EF05F00E
:100B5E008C8EB3EF05F08C9E1200000E186E000EF8
:100B6E00176ECAEF05F017501324156E1850142087
:100B7E00166E15C0F6FF16C0F7FF0800F5500AEC0A
:100B8E0006F0174A182A17501324156E1850142001
:100B9E00166E15C0F6FF16C0F7FF0800F5500009D7
:100BAE00D8A4DCEF05F0DEEF05F0BAEF05F0120089
:100BBE00000E0A6E000E096EF5EF05F009500524C1
:100BCE00076E0A500620086E07C0F6FF08C0F7FF32
:100BDE000800F55024EC06F0094A0A2A09500524AB
:100BEE00076E0A500620086E07C0F6FF08C0F7FF12
:100BFE000800F5500009D8A407EF06F009EF06F03B
:100C0E00E5EF05F01200126E12500F0B106E12501F
:100C1E00F00B116E8C8411380F0B58EC05F08C868E
:100C2E00280EE82EFED78C96105058EC05F08C86C8
:100C3E00280EE82EFED78C961200046E04500F0B71
:100C4E00026E0450F00B036E8C8403380F0B86EC8F
:100C5E0005F08C86280EE82EFED78C96025086EC78
:100C6E0005F08C86280EE82EFED78C9612002C0EE0
:100C7E00F66E0D0EF76E000EF86E00EE1AF010EE18
:100C8E0004F00900F5CFEEFFE550E150FAE11E90B9
:100C9E001E92000EF86E000122EF05F0116E8C947C
:100CAE00115058EC05F08C86100E106E940EE82E36
:100CBE00FED7102EFCD700D08C961200036E8C94AB
:100CCE00035086EC05F08C86100E026E940EE82E04
:100CDE00FED7022EFCD700D08C961200000E0F010C
:100CEE005D6F000E5B6F000E896E000E8B6E010E37
:100CFE00946E000E926E1200F29EF294F28AF28CB4
:100D0E00F28ED59AD596070ED512D59CD58E120099
:100D1E00000E55EC06F0010E55EC06F0120054894B
:020D2E000000C3
:020000040030CA
:0E0000002023583CFFD185FF0FC00FE00F40BA
:00000001FF
