:0400000081EF3FF05D
:107ECE003F065B4F666D7D077F67000E896E000E65
:107EDE008A6E000E8B6E000E0F015B6F000E5C6FD4
:107EEE00000E5D6F000E926E000E936EF18E9480FA
:107EFE0094821200CE0EF66E7E0EF76E000EF86EA7
:107F0E0000EE01F010EE0AF00900F5CFEEFFE5509D
:107F1E00E150FAE10C6A0B6A000196EF3FF06CEC4F
:107F2E003FF082A09DEF3FF09FEF3FF0CEEF3FF08E
:107F3E0089808992000E0C6E000E0B6E010E0B24C2
:107F4E00D96E000E0C20DA6EDF50816E080E0E6EAA
:107F5E009D0E0D6E060EE82EFED70D2EFCD70E2EA4
:107F6E00FAD70B4A0C2A0CBEC6EF3FF00C5009E1B3
:107F7E000A0E0B5CD8A0C6EF3FF0C8EF3FF0A5EF9E
:107F8E003FF0000E816E8990899298EF3FF082B299
:107F9E00D3EF3FF0D5EF3FF098EF3FF08990898215
:107FAE00000E0C6E090E0B6E010E0B24D96E000E18
:107FBE000C20DA6EDF50816E080E0E6E9D0E0D6E69
:107FCE00060EE82EFED70D2EFCD70E2EFAD70B0678
:107FDE00D8A00C060CBEF8EF3FF0F6EF3FF0DBEF4B
:107FEE003FF0000E816E8990899298EF3FF000EF7E
:027FFE0000F091
:020000040030CA
:0E0000000003583CFFD184FF0FC00FE00F40FB
:00000001FF
