:04000000AFEF18F056
:1008000000566F6C74616A652025302E3266004C8C
:1008100061204C6563747572613A2000696E6600F0
:050820006E616E000096
:10082600000E0001816F57C082F058C083F059C096
:1008360084F05AC085F085BF25EF04F023EF04F05D
:1008460039EF04F0010E816F82C001F083C002F01F
:1008560084C003F085C004F066EC18F001C082F095
:1008660002C083F003C084F004C085F0000E0001CE
:10087600876F000E866FC7C071F0C8C072F08151D5
:10088600D8B448EF04F04AEF04F05EEF04F081516B
:10089600D8A450EF04F052EF04F058EF04F0000E25
:1008A600676F2B0E666F5CEF04F0000E676F2D0E00
:1008B600666F66C081F082C001F083C002F084C01A
:1008C60003F085C004F065EC14F001040210D8A40E
:1008D6006FEF04F071EF04F0A4EF04F00001815112
:1008E600D8B478EF04F07AEF04F083EF04F081C017
:1008F60000F17107D8A07207000E876F010E866F90
:10090600000E8625016E010E8721026E1C0E036EF7
:10091600080E046E46EC18F00001FD0E7127FF0E5E
:10092600722355C011F056C012F0000E136E010E60
:10093600146E71C015F072C016F0EAEC16F043EFB3
:1009460009F082C001F083C002F084C003F085C0C4
:1009560004F065EC14F001500210D8A4B5EF04F0D1
:10096600B7EF04F0D7EF04F000018151D8B4BEEF21
:1009760004F0C0EF04F0C9EF04F081C000F1710784
:10098600D8A07207000E876F010E866F000E8625AF
:10099600016E010E8721026E200E036E080E046E94
:1009A60046EC18F08FEF04F0000E0001886F000E81
:1009B600896F800E8A6F3F0E8B6F000E706F000E70
:1009C6006F6F82C001F083C002F084C003F085C05F
:1009D60004F0000E056E000E066E000E076E000E89
:1009E600086E15EC16F0D8B0FBEF04F0FDEF04F03E
:1009F600DCEF05F00AEF05F073C088F074C089F0EB
:100A060075C08AF076C08BF000016F4B702B88C0E2
:100A16000FF089C010F08AC011F08BC012F0000EE2
:100A2600136E000E146E200E156E410E166EA4EC9B
:100A36000BF00FC073F010C074F011C075F012C047
:100A460076F000017351825D016E74518359026E16
:100A560075518459036E76518559046E27EC17F04B
:100A660004BE41EF05F004500310021009E1020E26
:100A7600015CD8A041EF05F043EF05F0FFEF04F06D
:100A860073C028F074C029F075C02AF076C02BF028
:100A960082C02CF083C02DF084C02EF085C02FF0CC
:100AA600E3EC13F0D8A05AEF05F05CEF05F0FFEF8A
:100AB60004F000018851825D016E89518359026EEE
:100AC6008A518459036E8B518559046E27EC17F0B1
:100AD60004BE7BEF05F004500310021007E1020E7E
:100AE600015CD8B079EF05F07BEF05F0C3EF05F0B8
:100AF60088C082F089C083F08AC084F08BC085F0FC
:100B0600DCEF05F088C028F089C029F08AC02AF0F9
:100B16008BC02BF0000E2C6E000E2D6E200E2E6E4E
:100B2600410E2F6EB9EC0DF028C088F029C089F06F
:100B36002AC08AF02BC08BF000016F07D8A070077F
:100B46008851825D016E89518359026E8A5184599A
:100B5600036E8B518559046E27EC17F004BEC1EF66
:100B660005F004500310021007E1020E015CD8B034
:100B7600BFEF05F0C1EF05F0C3EF05F07BEF05F021
:100B860082C028F083C029F084C02AF085C02BF0EB
:100B960088C02CF089C02DF08AC02EF08BC02FF0B3
:100BA600E3EC13F0D8A0DAEF05F0DCEF05F085EF03
:100BB60005F05BC069F069C06AF00001CABFE6EFE4
:100BC60005F0E8EF05F0EEEF05F0C9C062F0CAC027
:100BD60063F0F2EF05F0000E636F060E626F62C0FF
:100BE6006DF063C06EF06D4B6E2B660E6A19D8A45D
:100BF600FFEF05F001EF06F021EF06F070BF08EFFA
:100C060006F006EF06F014EF06F0000E886F000EF1
:100C1600896F800E8A6F3F0E8B6F000E706F000E0D
:100C26006F6F670E6919D8B41BEF06F01DEF06F05B
:100C360021EF06F06F516D2770516E23000E806F05
:100C4600000E7F6F82C077F083C078F084C079F0A1
:100C560085C07AF088C073F089C074F08AC075F0D8
:100C66008BC076F0B2EF06F077C028F078C029F096
:100C760079C02AF07AC02BF088C02CF089C02DF0FC
:100C86008AC02EF08BC02FF0B9EC0DF028C041F0D1
:100C960029C042F02AC043F02BC044F0F3EC10F018
:100CA60041C07BF042C07CF043C07DF044C07EF082
:100CB6007BC001F07CC002F07DC003F07EC004F072
:100CC60060EC13F001C06BF002C06CF077C028F046
:100CD60078C029F079C02AF07AC02BF07BC013F0D7
:100CE6007CC014F07DC015F07EC016F088C00FF0F1
:100CF60089C010F08AC011F08BC012F0A4EC0BF082
:100D06000FC02CF010C02DF011C02EF012C02FF025
:100D160001EC18F028C077F029C078F02AC079F0E5
:100D26002BC07AF088C028F089C029F08AC02AF042
:100D36008BC02BF0000E2C6E000E2D6E200E2E6E2C
:100D4600410E2F6EB9EC0DF028C088F029C089F04D
:100D56002AC08AF02BC08BF000017F4B802B6D518F
:100D66007F5D8051800A5C6E6E51800A5C58D8A007
:100D7600BFEF06F0C1EF06F037EF06F088C00FF0C0
:100D860089C010F08AC011F08BC012F0000E136EED
:100D9600000E146EA00E156E400E166EA4EC0BF02F
:100DA6000FC07BF010C07CF011C07DF012C07EF049
:100DB60077C028F078C029F079C02AF07AC02BF0E5
:100DC6007BC02CF07CC02DF07DC02EF07EC02FF0B5
:100DD600E3EC13F0D8B0F2EF06F0F4EF06F0FFEF15
:100DE60006F0000E00017B6F000E7C6F000E7D6F1B
:100DF600000E7E6F28EF07F077C001F078C002F092
:100E060079C003F07AC004F07BC005F07CC006F020
:100E16007DC007F07EC008F015EC16F0D8A016EFDE
:100E260007F018EF07F028EF07F000016BB11EEF8F
:100E360007F020EF07F028EF07F0000E7B6F000E9B
:100E46007C6F000E7D6F000E7E6F82C001F083C046
:100E560002F084C003F085C004F07BC005F07CC0BE
:100E660006F07DC007F07EC008F044EC09F001C032
:100E760077F002C078F003C079F004C07AF077C04A
:100E860028F078C029F079C02AF07AC02BF0000E3D
:100E9600136E000E146E200E156E410E166E73C084
:100EA6000FF074C010F075C011F076C012F0A4EC0B
:100EB6000BF00FC02CF010C02DF011C02EF012C098
:100EC6002FF0E3EC13F0D8A06BEF07F06DEF07F00F
:100ED60096EF07F000016F4B702B73C00FF074C0D4
:100EE60010F075C011F076C012F0000E136E000EF1
:100EF600146E200E156E410E166EA4EC0BF00FC08C
:100F060073F010C074F011C075F012C076F0660E62
:100F160000016A19D8A492EF07F094EF07F096EF54
:100F260007F06D4B6E2B73C088F074C089F075C0E6
:100F36008AF076C08BF06FC060F070C061F0000E72
:100F46000001686F000E656F000E646F000E806F03
:100F5600000E7F6F94EF08F077C028F078C029F074
:100F660079C02AF07AC02BF088C02CF089C02DF009
:100F76008AC02EF08BC02FF0B9EC0DF028C041F0DE
:100F860029C042F02AC043F02BC044F0F3EC10F025
:100F960041C07BF042C07CF043C07DF044C07EF08F
:100FA6007BC001F07CC002F07DC003F07EC004F07F
:100FB60060EC13F002BEEBEF07F0025007E10A0EF9
:100FC600015CD8B0E9EF07F0EBEF07F0FBEF07F0B5
:100FD6007BC001F07CC002F07DC003F07EC004F04F
:100FE60060EC13F001C06BF002C06CF000EF08F08B
:100FF600000E00016C6F090E6B6F00016851D8A4DA
:1010060007EF08F009EF08F031EF08F061BF10EFC5
:1010160008F00EEF08F031EF08F0000E8625D96EC5
:10102600010E8721DA6E2E0EDF6E864B872B710737
:10103600D8A07207010E686F31EF08F0000E862502
:10104600D96E010E8721DA6E300EDF6E864B872B46
:101056007107D8A072076407D8A0650764516511A7
:10106600D8A438EF08F03AEF08F021EF08F0000EA8
:101076008625D96E010E8721DA6E6B51300FDF6E31
:10108600864B872B7107D8A0720777C028F078C0E7
:1010960029F079C02AF07AC02BF07BC013F07CC00F
:1010A60014F07DC015F07EC016F088C00FF089C020
:1010B60010F08AC011F08BC012F0A4EC0BF00FC038
:1010C6002CF010C02DF011C02EF012C02FF001EC44
:1010D60018F028C077F029C078F02AC079F02BC024
:1010E6007AF088C028F089C029F08AC02AF08BC01F
:1010F6002BF0000E2C6E000E2D6E200E2E6E410E65
:101106002F6EB9EC0DF028C088F029C089F02AC0EE
:101116008AF02BC08BF000016007D8A061077F4BD7
:10112600802B6D517F5D8051800A5C6E6E51800A06
:101136005C58D8B0A1EF08F0A3EF08F0B1EF08F0C3
:1011460087BFAFEF08F0875109E14B0E865DD8A047
:10115600AFEF08F0B1EF08F0AFEF07F0000E806FC9
:101166004F0E7F6F000E7F25D96E010E8021DA6E3D
:10117600DF6A000E5C6E010E5D6E86515C5E875105
:101186005D5A7F515C24016E80515D20026E000E17
:10119600036E010E046E86C005F087C006F0D9EC1A
:1011A60017F0000186517F5D866F87518059876FE2
:1011B6008151D8A4E1EF08F0E4EF08F0010EE5EF65
:1011C60008F0000E7F6F806BCDA3ECEF08F0EEEF1A
:1011D60008F01CEF09F0FEEF08F08607D8A0870795
:1011E600000E8625D96E010E8721DA6E300EDF6E6F
:1011F6007107D8A0720771517F5D8051800A5C6EBD
:101206007251800A5C58D8B00BEF09F00DEF09F067
:101216001CEF09F086517F5D8051800A5C6E875114
:10122600800A5C58D8A01AEF09F01CEF09F0F0EF1D
:1012360008F08151D8B422EF09F024EF09F02FEF1E
:1012460009F08607D8A08707000E8625D96E010EFD
:101256008721DA6E81C0DFFF7F51715F8051725B3B
:1012660055C011F056C012F0000E8625136E010E01
:101276008721146E71C015F072C016F0EAEC16F0F4
:1012860012000450800B0D6E045004240F6E03AE42
:101296004FEF09F051EF09F052EF09F00F800F50B0
:1012A600D8B458EF09F05AEF09F06FEF09F00F289C
:1012B600D8A460EF09F062EF09F06AEF09F0000EBA
:1012C600016E000E026E000E036E000E046E038E9B
:1012D600000E046E77EF09F0000E016E000E026E2E
:1012E600000E036E000E046E0850800B0E6E0D503D
:1012F6000E18D8B481EF09F083EF09F084EF09F0F6
:101306000D8C085008240E6E07AE8CEF09F08EEF98
:1013160009F08FEF09F00E800E50D8B495EF09F062
:1013260097EF09F0ACEF09F00E28D8A49DEF09F06D
:101336009FEF09F0A7EF09F0000E056E000E066E8E
:10134600000E076E000E086E078E000E086EB4EFD4
:1013560009F0000E056E000E066E000E076E000EFA
:10136600086E0F500E5CD8B0BBEF09F0BDEF09F068
:10137600E4EF09F00DACC2EF09F0C4EF09F0C6EFD7
:1013860009F0800E0D1A0FC010F00EC00FF010C03D
:101396000EF001C010F005C001F010C005F002C04B
:1013A60010F006C002F010C006F003C010F007C02F
:1013B60003F010C007F004C010F008C004F010C01D
:1013C60008F0000E106E0F500EC009F00A6A095E92
:1013D600000E0A5A0ABEF9EF09F00A5009E11A0E80
:1013E600095CD8A0F9EF09F0FBEF09F032EF0AF03B
:1013F6000150021003100410D8A404EF0AF007EFFE
:101406000AF0010E08EF0AF0000E106E000E016ED3
:10141600000E026E000E036E000E046E0EC00FF07C
:101426003BEF0AF010A01AEF0AF01CEF0AF022EFC9
:101436000AF0D89010300109106E24EF0AF0D89007
:10144600103201A029EF0AF02BEF0AF02CEF0AF078
:10145600108E043404320332023201320F2A0E5047
:101466000F5CD8A039EF0AF03BEF0AF015EF0AF04F
:101476000DBC40EF0AF042EF0AF082EF0AF00F507F
:10148600D8A448EF0AF04AEF0AF054EF0AF0000E2B
:10149600016E000E026E000E036E000E046EA3EFC8
:1014A6000BF0055001260650022207500322085071
:1014B600042204A061EF0AF063EF0AF00FEF0BF0CD
:1014C60010A068EF0AF06AEF0AF070EF0AF0D89001
:1014D60010300109106E72EF0AF0D890103201A098
:1014E60077EF0AF079EF0AF07AEF0AF0108E0434FB
:1014F60004320332023201320F2A0FEF0BF005508D
:10150600015C06500258075003580450800A096EC1
:101516000850800A0958D8B093EF0AF095EF0AF000
:10152600C0EF0AF00150055C096E025006580A6EBB
:10153600035007580B6E045008580C6EFF0E092412
:10154600016EFF0E0A20026EFF0E0B20036EFF0EC9
:101556000C20046E800E0D1A106C1050D8A4B6EF35
:101566000AF0B8EF0AF0C8EF0AF0010E0126000EE5
:10157600022203220422C8EF0AF00550015E06503B
:10158600025A0750035A0850045A01500210031019
:101596000410D8A4D1EF0AF0D3EF0AF008EF0BF04D
:1015A6001050D8A4D9EF0AF0DBEF0AF008EF0BF0E1
:1015B600000E016E000E026E000E036E000E046E2B
:1015C600A3EF0BF0D890013602360336043610AE80
:1015D600EFEF0AF0F1EF0AF0F2EF0AF0018010A047
:1015E600F7EF0AF0F9EF0AF0FDEF0AF0D8801036AF
:1015F600FFEF0AF0D89010360F50D8B405EF0BF075
:1016060007EF0BF008EF0BF00F0603AE0DEF0BF034
:101616000FEF0BF0E5EF0AF0000E0E6E10AE16EFB0
:101626000BF018EF0BF030EF0BF010C009F07F0E47
:101636000916D8B421EF0BF023EF0BF027EF0BF0D0
:10164600010E0E6E30EF0BF001A02CEF0BF02EEF1B
:101656000BF030EF0BF023EF0BF00E50D8B436EF53
:101666000BF038EF0BF063EF0BF0010E0126000EC6
:1016760002220322042204A043EF0BF045EF0BF0F5
:1016860063EF0BF001C009F002C00AF003C00BF0D3
:1016960004C00CF00C340C320B320A32093209C089
:1016A60001F00AC002F00BC003F00CC004F00F28D2
:1016B600D8B460EF0BF062EF0BF063EF0BF00F2A7C
:1016C6000F28D8B469EF0BF06BEF0BF073EF0BF04C
:1016D6000F50D8A471EF0BF073EF0BF085EF0BF002
:1016E600000E016E000E026E000E036E000E046EFA
:1016F6000F50D8A481EF0BF083EF0BF085EF0BF0C2
:10170600000E0D6E0FA08AEF0BF08CEF0BF08FEF33
:101716000BF0038E90EF0BF0039ED8900F30046E03
:101726000DAE98EF0BF09AEF0BF09BEF0BF0048EDB
:1017360001C001F002C002F003C003F004C004F0CF
:1017460012001250800B1B6E12501224216E11AE25
:10175600AFEF0BF0B1EF0BF0B2EF0BF021802150A1
:10176600D8B4B8EF0BF0BAEF0BF0CDEF0BF02128A1
:10177600D8A4C0EF0BF0C2EF0BF0CAEF0BF0000ECF
:101786000F6E000E106E000E116E000E126E118E90
:10179600D5EF0BF0000E0F6E000E106E000E116EE0
:1017A600000E126E1650800B1B1A16501624206E51
:1017B60015AEE0EF0BF0E2EF0BF0E3EF0BF020805D
:1017C6002050D8B4E9EF0BF0EBEF0BF0FEEF0BF087
:1017D6002028D8A4F1EF0BF0F3EF0BF0FBEF0BF0A2
:1017E600000E136E000E146E000E156E000E166EB1
:1017F600158E06EF0CF0000E136E000E146E000E22
:10180600156E000E166E2050D8B40CEF0CF00EEFCD
:101816000CF016EF0CF02150D8A414EF0CF016EFD4
:101826000CF020EF0CF0000E0F6E000E106E000E86
:10183600116E000E126EB8EF0DF015500F02F3CFB9
:1018460026F0F4CF27F026501C6E1D6A1E6A1F6A0A
:101856002750226E236A246A256A14501002F3CF99
:1018660026F0F4CF27F026501C26000E1D221E223D
:101876001F2227502226000E23222422252213501F
:101886001102F3CF26F0F4CF27F026501C26000EC7
:101896001D221E221F2227502226000E232224222A
:1018A60025221EC01FF01DC01EF01CC01DF01C6AA4
:1018B60013501002F3CF26F0F4CF27F026501C2643
:1018C60027501D22000E1E22000E1F2214500F024A
:1018D600F3CF26F0F4CF27F026501C2627501D22E2
:1018E600000E1E22000E1F221EC01FF01DC01EF07D
:1018F6001CC01DF01C6A13500F02F3CF26F0F4CF64
:1019060027F026501C2627501D22000E1E22000EF0
:101916001F2215501002F3CF26F0F4CF27F02650E1
:10192600222627502322000E2422000E25221450A0
:101936001102F3CF26F0F4CF27F0265022262750A7
:101946002322000E2422000E252215501102F3CF69
:1019560026F0F4CF27F02650176E2750186E196A16
:101966001A6A19C01AF018C019F017C018F0176AC9
:101976001750222618502322195024221A502522A5
:101986001CC017F01DC018F01EC019F01FC01AF0B9
:10199600190ED3EF0CF0D8901A32193218321732CA
:1019A600E82ECEEF0CF0175022261850232219509D
:1019B60024221A5025221EC01FF01DC01EF01CC076
:1019C6001DF01C6A205021C017F0186A1726000E59
:1019D6001822820E1724266EFF0E1820276E09EF96
:1019E6000DF0D89022362336243625361FAEFEEF6C
:1019F6000CF000EF0DF001EF0DF02280D8901C36B0
:101A06001D361E361F362606D8A0270624AE0EEF34
:101A16000DF010EF0DF0F4EF0CF0000E206E1FAE7F
:101A260017EF0DF019EF0DF03DEF0DF0FF0E1C1442
:101A3600176EFF0E1D14186EFF0E1E14196E7F0E04
:101A46001F141A6E1750181019101A10D8B42EEF4A
:101A56000DF030EF0DF034EF0DF0010E206E3DEF7E
:101A66000DF022A039EF0DF03BEF0DF03DEF0DF03C
:101A760030EF0DF02050D8B443EF0DF045EF0DF0E8
:101A860069EF0DF0010E2226000E232224222522C4
:101A960025A050EF0DF052EF0DF069EF0DF022C0CA
:101AA60017F023C018F024C019F025C01AF01A3414
:101AB6001A3219321832173217C022F018C023F022
:101AC60019C024F01AC025F0264A272A27BE74EF2B
:101AD6000DF0275008E12628D8A074EF0DF076EF18
:101AE6000DF080EF0DF0000E226E000E236E800EBC
:101AF600246E7F0E256EAEEF0DF027BE8DEF0DF036
:101B0600275006E12604D8B08BEF0DF08DEF0DF0CF
:101B160099EF0DF0000E226E000E236E000E246E5D
:101B2600000E256E000E1B6EAEEF0DF026C021F0E6
:101B3600FF0E2216FF0E23167F0E2416000E251604
:101B460021A0A8EF0DF0AAEF0DF0ABEF0DF0248E5B
:101B5600D8902130256E1B50251222C00FF023C0CD
:101B660010F024C011F025C012F012002B50800B8B
:101B7600386E2B502B243F6E2AAEC4EF0DF0C6EF05
:101B86000DF0C7EF0DF03F803F50D8B4CDEF0DF00C
:101B9600CFEF0DF0E4EF0DF03F28D8A4D5EF0DF010
:101BA600D7EF0DF0DFEF0DF0000E286E000E296E58
:101BB600000E2A6E000E2B6E2A8E000E2B6EECEF98
:101BC6000DF0000E286E000E296E000E2A6E000E15
:101BD6002B6E2F50800B381A2F502F24406E2EAEAE
:101BE600F7EF0DF0F9EF0DF0FAEF0DF040804050F1
:101BF600D8B400EF0EF002EF0EF017EF0EF040280B
:101C0600D8A408EF0EF00AEF0EF012EF0EF0000E59
:101C16002C6E000E2D6E000E2E6E000E2F6E2E8E6A
:101C2600000E2F6E1FEF0EF0000E2C6E000E2D6EA6
:101C3600000E2E6E000E2F6E2C502D102E102F1013
:101C4600D8A428EF0EF02AEF0EF042EF0EF0000EA9
:101C5600286E000E296E000E2A6E000E2B6E800E68
:101C66002A127F0E2B1238502B1228C028F029C0BA
:101C760029F02AC02AF02BC02BF085EF0FF03F5039
:101C8600D8A448EF0EF04AEF0EF054EF0EF0000E17
:101C9600286E000E296E000E2A6E000E2B6E85EF42
:101CA6000FF040503FC030F0316A305E000E315ABE
:101CB6007F0E3024396E000E31203A6E28C034F083
:101CC60029C035F02AC036F02BC037F0000E286E3A
:101CD600000E296E000E2A6E000E2B6E000E3B6E55
:101CE600000E3C6E000E3D6E000E3E6E000E406E07
:101CF600B5EF0EF04050D8B483EF0EF085EF0EF03E
:101D06009CEF0EF0D8903436353636363736D890C6
:101D1600283629362A362B363EAE94EF0EF096EF4D
:101D26000EF097EF0EF02880D8903B363C363D36C5
:101D36003E362C50345C2D5035582E5036582F5088
:101D46003758D8A0A9EF0EF0ABEF0EF0B4EF0EF0B7
:101D56003E8C2C50345E2D50355A2E50365A2F500C
:101D6600375A402A190E4064BBEF0EF0BDEF0EF055
:101D76007DEF0EF03450351036103710D8B4C6EF5C
:101D86000EF0C8EF0EF0E0EF0EF03B80E0EF0EF045
:101D9600D890283629362A362B363EAED5EF0EF0A9
:101DA600D7EF0EF0D8EF0EF02880D8903B363C36B1
:101DB6003D363E363906D8A03A062AAEE5EF0EF095
:101DC600E7EF0EF0CBEF0EF0000E406E3EAEEEEFFC
:101DD6000EF0F0EF0EF014EF0FF0FF0E3B14306E26
:101DE600FF0E3C14316EFF0E3D14326E7F0E3E1414
:101DF600336E3050311032103310D8B405EF0FF077
:101E060007EF0FF00BEF0FF0010E406E14EF0FF01F
:101E160028A010EF0FF012EF0FF014EF0FF007EFFE
:101E26000FF04050D8B41AEF0FF01CEF0FF040EF50
:101E36000FF0010E2826000E29222A222B222BA083
:101E460027EF0FF029EF0FF040EF0FF028C030F02A
:101E560029C031F02AC032F02BC033F0333433328C
:101E660032323132303230C028F031C029F032C03F
:101E76002AF033C02BF0394A3A2A3ABE4BEF0FF01C
:101E86003A5008E13928D8A04BEF0FF04DEF0FF08C
:101E960058EF0FF0000E3A6E3968000E286E000EED
:101EA600296E000E2A6E000E2B6E3ABE65EF0FF0FD
:101EB6003A5006E13904D8B063EF0FF065EF0FF042
:101EC60073EF0FF0000E3A6E000E396E000E286E9C
:101ED600000E296E000E2A6E000E2B6E000E386E56
:101EE60039C03FF03FA07AEF0FF07CEF0FF07FEFA5
:101EF6000FF02A8E80EF0FF02A9ED8903F302B6E7F
:101F060036EF0EF012008EC0D9FF8FC0DAFFDECF9B
:101F1600F6FFDDCFF7FF0800F550250AD8A496EFA7
:101F26000FF098EF0FF0DEEF10F08EC0D9FF8FC0E4
:101F3600DAFFDE2A000EDD22000E0001C86F000E59
:101F4600C76FC7C0CDF0C969CA69000E976F000E8A
:101F5600966FD8EF0FF0CD838EC0D9FF8FC0DAFF12
:101F6600DE2A000EDD22D8EF0FF0000E976F010E6D
:101F7600966FD8EF0FF08EC0D9FF8FC0DAFFDECF95
:101F8600F6FFDDCFF7FF0800F5505E6E5F6A5F5023
:101F9600000AD8B4D1EF0FF0B8EF0FF05E50300A58
:101FA600D8B4AEEF0FF0B8EF0FF096519711D8B442
:101FB600DFEF0FF0E1EF0FF0BEEF0FF08EC0D9FFAD
:101FC6008FC0DAFFDECFF6FFDDCFF7FF0800F55052
:101FD6002E0AD8A4F1EF0FF0F3EF0FF008EF10F090
:101FE6008EC0D9FF8FC0DAFFDE2A000EDD228EC03A
:101FF60007F08FC008F090C009F091C00AF0B2EC6B
:1020060015F007C0C9F008C0CAF08EC0D9FF8FC04E
:10201600DAFFDECF99F0DDCF9AF099C0F6FF9AC0CD
:10202600F7FF0800F5CF98F025EF10F0994B9A2BA3
:102036003FEF10F06C0E986F3FEF10F0000E986FA8
:102046003FEF10F0000198515E6E5F6A5F50000A24
:10205600D8B430EF10F021EF10F05E504C0AD8B42F
:1020660019EF10F02A0AD8B41DEF10F00A0AD8B4F6
:1020760019EF10F021EF10F099C0F6FF9AC0F7FFA4
:102086000800F550660AD8A44BEF10F04DEF10F09B
:10209600D5EF10F083EF10F090C0D9FF91C0DAFFB2
:1020A600DFCF5EF0040EDE26DFCF5FF0000EDD220E
:1020B6005EC0D9FF5FC0DAFFDECF92F0DECF93F0CD
:1020C600DECF94F0DECF95F098EF10F090C0D9FFF8
:1020D60091C0DAFFDFCF5EF0040EDE26DFCF5FF0C1
:1020E600000EDD225EC0D9FF5FC0DAFFDECF92F0C0
:1020F600DECF93F0DECF94F0DECF95F098EF10F0C0
:1021060098515E6E5F6A5F50000AD8B48DEF10F08A
:1021160098EF10F05E504C0AD8B469EF10F0200A20
:10212600D8B44FEF10F098EF10F0010E99255E6EBF
:10213600000E9A215F6E8EC0D9FF8FC0DAFF5EC097
:10214600DEFF5FC0DDFFBFEF10F08CC055F08DC025
:1021560056F092C057F093C058F094C059F095C00D
:102166005AF099C0F6FF9AC0F7FF0800F5CF5BF06A
:1021760013EC04F0F2EF10F099C0F6FF9AC0F7FFE7
:102186000800F5505E6E5F6A5F50000AD8B4CEEF65
:1021960010F0D5EF10F05E50660AD8B4A8EF10F034
:1021A600D5EF10F08EC0D9FF8FC0DAFFDE2A000E01
:1021B600DD22F2EF10F08EC0D9FF8FC0DAFFDECF3E
:1021C600F6FFDDCFF7FF0800F550016E026A8CC0FE
:1021D60003F08DC004F04DEC15F0D5EF10F01200B1
:1021E600BBC051F0BCC052F0BDC053F0BEC054F0ED
:1021F60041C051F042C052F043C053F044C054F0C5
:10220600810E456EFF0E466E51C047F052C048F033
:1022160053C049F054C04AF0180E17EF11F0D89089
:102226004A32493248324732E82E12EF11F047500F
:1022360045244F6E000E4620506E50BE2CEF11F016
:10224600505009E1170E4F5CD8A02CEF11F02EEF7D
:1022560011F038EF11F041C041F042C042F043C0E6
:1022660043F044C044F0FBEF11F050BE3DEF11F0D7
:102276003FEF11F0AFEF11F04FC045F0FF0E466E85
:10228600FF0E476E7F0E486E000E496E45664EEF96
:1022960011F056EF11F0493449324832473246328E
:1022A600452E49EF11F046C04BF047C04CF048C0F0
:1022B6004DF049C04EF04B505114456E4C505214DF
:1022C600466E4D505314476E4E505414486E45504A
:1022D600461047104810D8A473EF11F075EF11F0AF
:1022E60077EF11F02EEF11F051C045F052C046F0D5
:1022F60053C047F054C048F0200E87EF11F0D89035
:102306004832473246324532E82E82EF11F04550C8
:10231600461047104810D8B493EF11F095EF11F01E
:102326009DEF11F04B5051264C5052224D505322E6
:102336004E5054224B1C456E4C1C466E4D1C476E2F
:102346004E1C486E4550511646505216475053166D
:1023560048505416F3EF11F051C045F052C046F004
:1023660053C047F054C048F0200EBFEF11F0D8908C
:102376004832473246324532E82EBAEF11F0455020
:10238600461047104810D8A4CBEF11F0CDEF11F04E
:10239600D7EF11F0000E516E000E526E000E536E06
:1023A600000E546EF3EF11F0D8905134456E52344E
:1023B600466E5334476E5434486E455046104710A7
:1023C6004810D8B4E9EF11F0EBEF11F0F3EF11F08C
:1023D600000E516E000E526E800E536EBF0E546E7E
:1023E60051C041F052C042F053C043F054C044F0D3
:1023F6001200096E0950D8B403EF12F005EF12F07F
:1024060027EF12F004BE0CEF12F00AEF12F027EFDE
:1024160012F001C005F002C006F003C007F004C0C8
:1024260008F0051E061E071E081E052A000E0622B7
:102436000722082205C00BF006C00CF007C00DF0FD
:1024460008C00EF02FEF12F001C00BF002C00CF026
:1024560003C00DF004C00EF001500210031004106A
:10246600D8A438EF12F03AEF12F044EF12F0000E53
:10247600016E000E026E000E036E000E046ED5EFA6
:1024860012F0960E0A6E4EEF12F00A2AD8900E320D
:102496000D320C320B32000E0B14056E000E0C14AE
:1024A600066E000E0D14076EFE0E0E14086E055015
:1024B600061007100810D8A463EF12F065EF12F0AB
:1024C60048EF12F073EF12F00A2A010E0B26000EE7
:1024D6000C220D220E22D8900E320D320C320B3207
:1024E600000E0B14056E000E0C14066E000E0D1475
:1024F600076EFF0E0E14086E055006100710081022
:10250600D8A488EF12F08AEF12F067EF12F092EF7C
:1025160012F00A06D8900B360C360D360E360DBE66
:1025260097EF12F099EF12F0A1EF12F0020E0A6087
:102536009FEF12F0A1EF12F08CEF12F00AB0A6EFA7
:1025460012F0A8EF12F0A9EF12F00D9ED8900A3201
:102556000AC005F0066A076A086A05C008F0076A35
:10256600066A056A05500B1206500C1207500D122A
:1025760008500E120950D8B4C3EF12F0C5EF12F08E
:10258600CDEF12F004BECCEF12F0CAEF12F0CDEF91
:1025960012F00E8E0BC001F00CC002F00DC003F05D
:1025A6000EC004F012006AEC16F0DBEC18F0D0EC6A
:1025B60018F0C282C2B2E2EF12F0E4EF12F0DDEFE1
:1025C60012F0C4500001BA6FB96BC350B925CB6F76
:1025D600000EBA21CC6F000E136E000E146EA00E04
:1025E600156E400E166ECBC001F0CCC002F0000E88
:1025F60002BEFF0E036E046E010EFCEC11F001C06C
:102606000FF002C010F003C011F004C012F0A4ECE9
:102616000BF00FC028F010C029F011C02AF012C02C
:102626002BF0000E2C6EC00E2D6E7F0E2E6E440EFD
:102636002F6EB9EC0DF028C0C3F029C0C4F02AC033
:10264600C5F02BC0C6F0010E046E010EE4EC14F0CA
:102656000F0E056E080E066EABEC16F0010E046E3C
:10266600020EE4EC14F0CE0E0001A36F000EA46F70
:10267600010EA56F080EA66FC3C0A7F0C4C0A8F0D0
:10268600C5C0A9F0C6C0AAF0B1EC17F0CE0E056E13
:10269600000E066EABEC16F0040E0001BA6F0C0EBF
:1026A600B96F330EE82EFED7B92FFCD7BA2FFAD75B
:1026B60000D0D6EF12F000EF00F0033404340A6EB7
:1026C6000A50D8A469EF13F06BEF13F075EF13F00F
:1026D600000E016E000E026E000E036E000E046EFA
:1026E600E2EF13F001C005F002C006F003C007F0E8
:1026F60004C008F0200E85EF13F0D8900832073298
:1027060006320532E82E80EF13F00550096E038E6F
:10271600FF0E0116FF0E0216FF0E0316000E04161C
:10272600960E0A5E0ABE9CEF13F09AEF13F0B2EF14
:1027360013F00A50800A970FD8B0A4EF13F0A6EF53
:1027460013F0A8EF13F06BEF13F0D89004320332B6
:10275600023201320A3EA8EF13F0CAEF13F01F0E41
:102766000A64B8EF13F0BAEF13F0C2EF13F06BEF91
:1027760013F0D89001360236033604360A060A509C
:10278600D8A4C8EF13F0CAEF13F0BCEF13F009504A
:10279600D8B4D0EF13F0D2EF13F0DAEF13F0041E33
:1027A600031E021E016C000E02220322042201C037
:1027B60001F002C002F003C003F004C004F01200EE
:1027C600000E2814306E000E2914316E800E2A1465
:1027D600326E7F0E2B14336E3050311032103310A0
:1027E600D8A4F8EF13F0FAEF13F002EF14F0000E8E
:1027F600286E000E296E000E2A6E000E2B6E000E3D
:102806002C14306E000E2D14316E800E2E14326E86
:102816007F0E2F14336E3050311032103310D8A47F
:1028260017EF14F019EF14F021EF14F0000E2C6ED0
:10283600000E2D6E000E2E6E000E2F6E2BAE26EFA6
:1028460014F028EF14F031EF14F0286C291ED8B0DC
:10285600292A2A1ED8B02A2A800E2B562FAE36EFEA
:1028660014F038EF14F041EF14F02C6C2D1ED8B094
:102876002D2A2E1ED8B02E2A800E2F56000E281A6C
:10288600000E291A000E2A1A800E2B1A000E2C1A78
:10289600000E2D1A000E2E1A800E2F1A2C50285CB0
:1028A6002D5029582E502A582F502B58D8B05EEF4D
:1028B60014F060EF14F063EF14F0D89064EF14F0A6
:1028C600D8801200BFC00BF0C0C00CF0C1C00DF024
:1028D600C2C00EF001C00BF002C00CF003C00DF038
:1028E60004C00EF00BC005F00CC006F00DC007F0DA
:1028F6000EC008F0180E85EF14F0D8900832073293
:1029060006320532E82E80EF14F00550096E0A6A89
:1029160009500A10D8A492EF14F094EF14F0B4EF13
:1029260014F0D8900B34056E0C34066E0D34076E19
:102936000E34086E0550061007100810D8A4A6EF2E
:1029460014F0A8EF14F0AEEF14F0000E026E020EB3
:10295600016EE3EF14F0000E026E030E016EE3EF5C
:1029660014F009280A10D8A4BBEF14F0BDEF14F038
:10297600DFEF14F00BC005F00CC006F00DC007F039
:102986000EC008F0090ED89005360636073608360A
:10299600E82EC6EF14F00550061007100810D8B43C
:1029A600D7EF14F0DAEF14F0010EDBEF14F0000E9F
:1029B600016E026AE3EF14F0000E026E040E016E61
:1029C6001200056E0504D8A4EBEF14F0EDEF14F039
:1029D600FEEF14F004507F0F086E08380F0B066EDA
:1029E60008500F0B076E0650C0EC18F00750C0ECED
:1029F60018F04CEF15F0020E0518D8A405EF15F0E7
:102A060007EF15F018EF15F00450BF0F086E0838E1
:102A16000F0B066E08500F0B076E0650C0EC18F031
:102A26000750C0EC18F04CEF15F0030E0518D8A4AB
:102A36001FEF15F021EF15F032EF15F00450930F4C
:102A4600086E08380F0B066E08500F0B076E0650FF
:102A5600C0EC18F00750C0EC18F04CEF15F0040E5F
:102A66000518D8A439EF15F03BEF15F04CEF15F02B
:102A76000450D30F086E08380F0B066E08500F0B64
:102A8600076E0650C0EC18F00750C0EC18F04CEF7B
:102A960015F0120003500410D8B454EF15F056EF99
:102AA60015F05FEF15F003500410D8A45DEF15F094
:102AB6005FEF15F064EF15F00150E2EC18F0B1EF9E
:102AC60015F020EE0AF00350D9260450DA22DE5023
:102AD600DE10D8B471EF15F073EF15F08EEF15F028
:102AE60020EE0AF00350D9260450DA2210EE03F045
:102AF6000350E1260450E222DE50E65CE650800AEE
:102B0600096EDE50800A0958D8B08CEF15F08EEFAA
:102B160015F0B1EF15F020EE03F00350D92604505E
:102B2600DA22DECF05F0DDCF06F003C0D9FF04C000
:102B3600DAFFDECF07F0DDCF08F005500724D96EA7
:102B460006500820DA6E01C0DFFF20EE03F00350C6
:102B5600D9260450DA22DE2A000EDD221200000EEB
:102B66000F6E000E0E6E07C0D9FF08C0DAFFDECF6B
:102B7600F6FFDDCFF7FF0800F5502A0AD8A4C6EF06
:102B860015F0C8EF15F0FCEF15F007C0D9FF08C027
:102B9600DAFFDE2A000EDD2209C0D9FF0AC0DAFFFD
:102BA600DFCF0BF0020EDE26DFCF0CF0000EDD22AB
:102BB6000BC0D9FF0CC0DAFFDECF0EF0DDCF0FF071
:102BC60010EF16F00EC001F00FC002F0000E046EFA
:102BD6000A0E036E9CEC18F00D5001240E6E000ECA
:102BE60002200F6E07C0D9FF08C0DAFFDE2A000EEA
:102BF600DD2207C0D9FF08C0DAFFDECFF6FFDDCF42
:102C0600F7FF0800F550D00F0D6E090E0D640EEF9C
:102C160016F010EF16F0E5EF15F00EC007F00FC036
:102C260008F01200000E0114096E000E02140A6E5E
:102C3600800E03140B6E7F0E04140C6E09500A10DE
:102C46000B100C10D8A42AEF16F02CEF16F034EF68
:102C560016F0000E016E000E026E000E036E000EE0
:102C6600046E000E0514096E000E06140A6E800E20
:102C760007140B6E7F0E08140C6E09500A100B1009
:102C86000C10D8A449EF16F04BEF16F053EF16F0E0
:102C9600000E056E000E066E000E076E000E086E24
:102CA600055001180FE1065002180CE107500318F1
:102CB60009E108500418D8B463EF16F065EF16F072
:102CC60068EF16F0D89069EF16F0D8801200959448
:102CD60095969598959A959C959E000E5AEC17F0A8
:102CE6004E0E046EEB0EE82EFED7042EFCD700F037
:102CF600030EC0EC18F0140E046E7A0EE82EFED702
:102D0600042EFCD7030EC0EC18F02B0E046EDA0E60
:102D1600E82EFED7042EFCD700D0030EC0EC18F028
:102D2600020EC0EC18F0020EC0EC18F0080EC0EC53
:102D360018F0000EC0EC18F00C0EC0EC18F0000EE7
:102D4600C0EC18F0060EC0EC18F0DBEC18F0120020
:102D5600000E0A6E000E096ECBEF16F00950052420
:102D6600076E0A500620086E07C0F6FF08C0F7FF78
:102D7600F86A070EF76403D00800F55005D0F6CFC1
:102D8600E1FFF7CFE2FFE75082EC18F0094A0A2A82
:102D960009500524076E0A500620086E07C0F6FF84
:102DA60008C0F7FFF86A070EF76403D00800F5506D
:102DB60005D0F6CFE1FFF7CFE2FFE7500009D8A430
:102DC600E7EF16F0E9EF16F0B1EF16F0120016BEB7
:102DD600EFEF16F0F1EF16F0F7EF16F015C01AF058
:102DE60016C01BF0FBEF16F0000E1B6E000E1A6EDF
:102DF600000E196E000E186E0DEF17F0000E026E23
:102E0600200E016E11C003F012C004F04DEC15F057
:102E1600184A192A1A50185C1950800A176E1B5046
:102E2600800A1758D8A01AEF17F01CEF17F001EF19
:102E360017F013C00AF014C00BF011C00CF012C04A
:102E46000DF024EC18F0120004BE36EF17F0045013
:102E56000310021006E10104D8B034EF17F036EF84
:102E660017F051EF17F001C005F002C006F003C0DD
:102E760007F004C008F0051E061E071E081E052AD8
:102E8600000E06220722082205C001F006C002F045
:102E960007C003F008C004F059EF17F001C001F0B5
:102EA60002C002F003C003F004C004F01200016E79
:102EB60001A060EF17F062EF17F065EF17F08C884E
:102EC60066EF17F08C9801A26BEF17F06DEF17F015
:102ED60070EF17F08C8A71EF17F08C9A01A476EFD9
:102EE60017F078EF17F07BEF17F08C8C7CEF17F06C
:102EF6008C9C01A681EF17F083EF17F086EF17F091
:102F06008C8E87EF17F08C9E12009DC0A1F09EC09C
:102F1600A2F09DEF17F09BC08CF09CC08DF0A10E27
:102F260000018E6F000E8F6F9FC090F0A0C091F0D1
:102F360086EC0FF0A1C0F6FFA2C0F7FF0800F5501F
:102F46000009D8A4A9EF17F0ABEF17F08EEF17F032
:102F5600000E00019C6F000E9B6F1200A70E000171
:102F6600AB6F000EAC6FA3C0ADF0A4C0AEF0000E08
:102F7600B16F000EB06F000EB86F000EB76FAD0EDA
:102F86009B6F000E9C6FA5C09DF0A6C09EF0AB0E79
:102F96009F6F000EA06F88EC17F00001B051A325BB
:102FA600D96EB151A421DA6EDF6A120003C009F0AE
:102FB60004C00AF001C007F002C008F0F3EF17F0F2
:102FC60009C0D9FF0AC0DAFFDF500B6E094A0A2A88
:102FD60007C0D9FF08C0DAFF0BC0DFFF074A082A7F
:102FE6000506D8A00606052806E10628D8A4FEEFA1
:102FF60017F000EF18F0E3EF17F01200000E2C1A8E
:10300600000E2D1A000E2E1A800E2F1A28C001F05F
:1030160029C002F02AC003F02BC004F02CC005F032
:103026002DC006F02EC007F02FC008F044EC09F0C2
:1030360001C028F002C029F003C02AF004C02BF01A
:103046001200000E106E000E0F6E35EF18F00EC057
:1030560001F0026A0CC003F00DC004F04DEC15F04F
:103066000F4A102A0F500A24D96E10500B20DA6E20
:10307600DF500E6E0E50D8A443EF18F045EF18F04F
:103086002AEF18F0120003C005F004C006F001C0D4
:1030960007F002C008F005C0F6FF06C0F7FF054AB4
:1030A600062A07C0D9FF08C0DAFF074A082A08001F
:1030B600F5CFDFFFDF50D8A463EF18F065EF18F007
:1030C6004EEF18F012000150021003100410D8B48D
:1030D6006FEF18F071EF18F079EF18F0000E011A83
:1030E600000E021A000E031A800E041A01C001F027
:1030F60002C002F003C003F004C004F01200046E24
:1031060004500F0B026E0450F00B036E8C840338D0
:103116000F0B5AEC17F08C86280EE82EFED78C96ED
:1031260002505AEC17F08C86280EE82EFED78C96A5
:10313600120001500302F3CF05F0F4CF06F0015060
:103146000402F350062602500302F350062605C079
:1031560001F006C002F0120001EE00F0500EEE6A19
:10316600E806FDE100EEBBF0270EEE6AE806FDE19B
:10317600000EF86E0001D6EF12F0036E8C94035029
:103186005AEC17F08C86100E026E940EE82EFED7BF
:10319600022EFCD700D08C9612000F015B81928024
:1031A600000EC26E000EC16E9D0EC06EC280120071
:1031B600000EC0EC18F0010EC0EC18F01200120060
:020000040030CA
:0E00000000035A3CFFD185FF0FC00FE00F40F8
:00000001FF
