:0400000025EF19F0DF
:100800000054657374204C434420313678320046DE
:100810006C6F61743A2025302E326600486F6C612F
:10082000206120746F646F7300504943313846343F
:10083000354B353000496E743A20257500696E6677
:10084000006E616E0000000E0001816F30C082F00A
:1008500031C083F032C084F033C085F085BF35EFFE
:1008600004F033EF04F049EF04F0010E816F82C011
:1008700001F083C002F084C003F085C004F0AEEC48
:1008800019F001C082F002C083F003C084F004C0FC
:1008900085F0000E0001876F000E866FA2C071F018
:1008A000A3C072F08151D8B458EF04F05AEF04F0AD
:1008B0006EEF04F08151D8A460EF04F062EF04F011
:1008C00068EF04F0000E676F2B0E666F6CEF04F09C
:1008D000000E676F2D0E666F66C081F082C001F05A
:1008E00083C002F084C003F085C004F01EEC15F054
:1008F00001040210D8A47FEF04F081EF04F0B4EFFC
:1009000004F000018151D8B488EF04F08AEF04F0BC
:1009100093EF04F081C000F17107D8A07207000EB8
:10092000876F010E866F000E8625016E010E8721EE
:10093000026E3D0E036E080E046E8EEC19F000017F
:10094000FD0E7127FF0E72232EC011F02FC012F082
:10095000000E136E010E146E71C015F072C016F009
:10096000A3EC17F054EF09F082C001F083C002F04D
:1009700084C003F085C004F01EEC15F00150021095
:10098000D8A4C5EF04F0C7EF04F0E7EF04F00001CE
:100990008151D8B4CEEF04F0D0EF04F0D9EF04F0D9
:1009A00081C000F17107D8A07207000E876F010E99
:1009B000866F000E8625016E010E8721026E410EA4
:1009C000036E080E046E8EEC19F09FEF04F0000E1B
:1009D0000001886F000E896F800E8A6F3F0E8B6F4B
:1009E000000E706F000E6F6F82C001F083C002F0C6
:1009F00084C003F085C004F0000E056E000E066E84
:100A0000000E076E000E086ECEEC16F0D8B00BEF9D
:100A100005F00DEF05F0ECEF05F01AEF05F073C0EF
:100A200088F074C089F075C08AF076C08BF0000140
:100A30006F4B702B88C001F089C002F08AC003F0B0
:100A40008BC004F0000E056E000E066E200E076EC1
:100A5000410E086EB5EC0BF001C073F002C074F0EB
:100A600003C075F004C076F000017351825D016E21
:100A700074518359026E75518459036E76518559AC
:100A8000046E1AEC18F004BE51EF05F00450031088
:100A9000021009E1020E015CD8A051EF05F053EFFE
:100AA00005F00FEF05F073C01AF074C01BF075C0AD
:100AB0001CF076C01DF082C01EF083C01FF084C001
:100AC00020F085C021F09CEC14F0D8A06AEF05F06E
:100AD0006CEF05F00FEF05F000018851825D016EAB
:100AE00089518359026E8A518459036E8B518559FD
:100AF000046E1AEC18F004BE8BEF05F004500310DE
:100B0000021007E1020E015CD8B089EF05F08BEF0F
:100B100005F0D3EF05F088C082F089C083F08AC069
:100B200084F08BC085F0ECEF05F088C001F089C03F
:100B300002F08AC003F08BC004F0000E056E000EB8
:100B4000066E200E076E410E086ECAEC0DF001C055
:100B500088F002C089F003C08AF004C08BF0000165
:100B60006F07D8A070078851825D016E8951835943
:100B7000026E8A518459036E8B518559046E1AECAA
:100B800018F004BED1EF05F004500310021007E185
:100B9000020E015CD8B0CFEF05F0D1EF05F0D3EF36
:100BA00005F08BEF05F082C01AF083C01BF084C003
:100BB0001CF085C01DF088C01EF089C01FF08AC0DF
:100BC00020F08BC021F09CEC14F0D8A0EAEF05F0E7
:100BD000ECEF05F095EF05F034C069F069C06AF0FC
:100BE0005DBEF5EF05F0F7EF05F0FDEF05F05CC039
:100BF00062F05DC063F002EF06F0000E0001636F6B
:100C0000060E626F62C06DF063C06EF000016D4B46
:100C10006E2B660E6A19D8A410EF06F012EF06F0DC
:100C200032EF06F070BF19EF06F017EF06F025EF70
:100C300006F0000E886F000E896F800E8A6F3F0EDF
:100C40008B6F000E706F000E6F6F670E6919D8B44E
:100C50002CEF06F02EEF06F032EF06F06F516D2705
:100C600070516E23000E806F000E7F6F82C077F090
:100C700083C078F084C079F085C07AF088C073F0C2
:100C800089C074F08AC075F08BC076F0C3EF06F0AF
:100C900077C001F078C002F079C003F07AC004F0A8
:100CA00088C005F089C006F08AC007F08BC008F044
:100CB000CAEC0DF001C01AF002C01BF003C01CF01A
:100CC00004C01DF07CEC12F01AC07BF01BC07CF05D
:100CD0001CC07DF01DC07EF07BC001F07CC002F026
:100CE0007DC003F07EC004F019EC14F001C06BF07D
:100CF00002C06CF077C01AF078C01BF079C01CF00D
:100D00007AC01DF07BC005F07CC006F07DC007F006
:100D10007EC008F088C001F089C002F08AC003F0EC
:100D20008BC004F0B5EC0BF001C01EF002C01FF048
:100D300003C020F004C021F049EC19F01AC077F08C
:100D40001BC078F01CC079F01DC07AF088C001F09B
:100D500089C002F08AC003F08BC004F0000E056E5B
:100D6000000E066E200E076E410E086ECAEC0DF0E6
:100D700001C088F002C089F003C08AF004C08BF083
:100D800000017F4B802B6D517F5D8051800A356E55
:100D90006E51800A3558D8A0D0EF06F0D2EF06F099
:100DA00048EF06F088C001F089C002F08AC003F065
:100DB0008BC004F0000E056E000E066EA00E076ECE
:100DC000400E086EB5EC0BF001C07BF002C07CF069
:100DD00003C07DF004C07EF077C01AF078C01BF02D
:100DE00079C01CF07AC01DF07BC01EF07CC01FF0E3
:100DF0007DC020F07EC021F09CEC14F0D8B003EF51
:100E000007F005EF07F010EF07F0000E00017B6F11
:100E1000000E7C6F000E7D6F000E7E6F39EF07F0C5
:100E200077C001F078C002F079C003F07AC004F016
:100E30007BC005F07CC006F07DC007F07EC008F0E6
:100E4000CEEC16F0D8A027EF07F029EF07F039EF26
:100E500007F000016BB12FEF07F031EF07F039EF2A
:100E600007F0000E7B6F000E7C6F000E7D6F000E92
:100E70007E6F82C001F083C002F084C003F085C0A1
:100E800004F07BC005F07CC006F07DC007F07EC09A
:100E900008F055EC09F001C077F002C078F003C00B
:100EA00079F004C07AF077C01AF078C01BF079C0EE
:100EB0001CF07AC01DF0000E056E000E066E200EAE
:100EC000076E410E086E73C001F074C002F075C069
:100ED00003F076C004F0B5EC0BF001C01EF002C0C8
:100EE0001FF003C020F004C021F09CEC14F0D8A047
:100EF0007CEF07F07EEF07F0A7EF07F000016F4BE4
:100F0000702B73C001F074C002F075C003F076C09E
:100F100004F0000E056E000E066E200E076E410EE8
:100F2000086EB5EC0BF001C073F002C074F003C0A2
:100F300075F004C076F0660E00016A19D8A4A3EF1C
:100F400007F0A5EF07F0A7EF07F06D4B6E2B73C00E
:100F500088F074C089F075C08AF076C08BF06FC0DD
:100F600060F070C061F0000E0001686F000E656FE8
:100F7000000E646F000E806F000E7F6FA5EF08F00B
:100F800077C001F078C002F079C003F07AC004F0B5
:100F900088C005F089C006F08AC007F08BC008F051
:100FA000CAEC0DF001C01AF002C01BF003C01CF027
:100FB00004C01DF07CEC12F01AC07BF01BC07CF06A
:100FC0001CC07DF01DC07EF07BC001F07CC002F033
:100FD0007DC003F07EC004F019EC14F002BEFCEFFB
:100FE00007F0025007E10A0E015CD8B0FAEF07F0F3
:100FF000FCEF07F00CEF08F07BC001F07CC002F0C2
:101000007DC003F07EC004F019EC14F001C06BF059
:1010100002C06CF011EF08F0000E00016C6F090EB9
:101020006B6F00016851D8A418EF08F01AEF08F0B0
:1010300042EF08F061BF21EF08F01FEF08F042EF28
:1010400008F0000E8625D96E010E8721DA6E2E0E6D
:10105000DF6E864B872B7107D8A07207010E686F71
:1010600042EF08F0000E8625D96E010E8721DA6E58
:10107000300EDF6E864B872B7107D8A0720764078E
:10108000D8A0650764516511D8A449EF08F04BEF6B
:1010900008F032EF08F0000E8625D96E010E872188
:1010A000DA6E6B51300FDF6E864B872B7107D8A03D
:1010B000720777C01AF078C01BF079C01CF07AC0B4
:1010C0001DF07BC005F07CC006F07DC007F07EC03F
:1010D00008F088C001F089C002F08AC003F08BC01C
:1010E00004F0B5EC0BF001C01EF002C01FF003C00D
:1010F00020F004C021F049EC19F01AC077F01BC0B1
:1011000078F01CC079F01DC07AF088C001F089C069
:1011100002F08AC003F08BC004F0000E056E000ED2
:10112000066E200E076E410E086ECAEC0DF001C06F
:1011300088F002C089F003C08AF004C08BF000017F
:101140006007D8A061077F4B802B6D517F5D805178
:10115000800A356E6E51800A3558D8B0B2EF08F06B
:10116000B4EF08F0C2EF08F087BFC0EF08F0875176
:1011700009E14B0E865DD8A0C0EF08F0C2EF08F081
:10118000C0EF07F0000E806F4F0E7F6F000E7F25BF
:10119000D96E010E8021DA6EDF6A000E356E010E07
:1011A000366E8651355E8751365A7F513524016E31
:1011B00080513620026E000E036E010E046E86C052
:1011C00005F087C006F0FDEC18F0000186517F5D48
:1011D000866F87518059876F8151D8A4F2EF08F04C
:1011E000F5EF08F0010EF6EF08F0000E7F6F806B50
:1011F0005EA2FDEF08F0FFEF08F02DEF09F00FEF12
:1012000009F08607D8A08707000E8625D96E010E43
:101210008721DA6E300EDF6E7107D8A07207715128
:101220007F5D8051800A356E7251800A3558D8B082
:101230001CEF09F01EEF09F02DEF09F086517F5DDC
:101240008051800A356E8751800A3558D8A02BEF1F
:1012500009F02DEF09F001EF09F08151D8B433EF17
:1012600009F035EF09F040EF09F08607D8A08707AD
:10127000000E8625D96E010E8721DA6E81C0DFFF50
:101280007F51715F8051725B2EC011F02FC012F040
:10129000000E8625136E010E8721146E71C015F0A5
:1012A00072C016F0A3EC17F012000450800B0D6E04
:1012B000045004240F6E03AE60EF09F062EF09F0F2
:1012C00063EF09F00F800F50D8B469EF09F06BEFAE
:1012D00009F080EF09F00F28D8A471EF09F073EF3F
:1012E00009F07BEF09F0000E016E000E026E000E99
:1012F000036E000E046E038E000E046E88EF09F07C
:10130000000E016E000E026E000E036E000E046EE3
:101310000850800B0E6E0D500E18D8B492EF09F0E5
:1013200094EF09F095EF09F00D8C085008240E6E2B
:1013300007AE9DEF09F09FEF09F0A0EF09F00E80D6
:101340000E50D8B4A6EF09F0A8EF09F0BDEF09F0F0
:101350000E28D8A4AEEF09F0B0EF09F0B8EF09F00D
:10136000000E056E000E066E000E076E000E086E73
:10137000078E000E086EC5EF09F0000E056E000E18
:10138000066E000E076E000E086E0F500E5CD8B091
:10139000CCEF09F0CEEF09F0F5EF09F00DACD3EF8B
:1013A00009F0D5EF09F0D7EF09F0800E0D1A0FC044
:1013B00010F00EC00FF010C00EF001C010F005C00C
:1013C00001F010C005F002C010F006C002F010C01D
:1013D00006F003C010F007C003F010C007F004C00F
:1013E00010F008C004F010C008F0000E106E0F508E
:1013F0000EC009F00A6A095E000E0A5A0ABE0AEF18
:101400000AF00A5009E11A0E095CD8A00AEF0AF0A6
:101410000CEF0AF043EF0AF0015002100310041021
:10142000D8A415EF0AF018EF0AF0010E19EF0AF030
:10143000000E106E000E016E000E026E000E036EA6
:10144000000E046E0EC00FF04CEF0AF010A02BEF50
:101450000AF02DEF0AF033EF0AF0D89010300109AE
:10146000106E35EF0AF0D890103201A03AEF0AF072
:101470003CEF0AF03DEF0AF0108E043404320332E0
:10148000023201320F2A0E500F5CD8A04AEF0AF048
:101490004CEF0AF026EF0AF00DBC51EF0AF053EFC3
:1014A0000AF093EF0AF00F50D8A459EF0AF05BEF5F
:1014B0000AF065EF0AF0000E016E000E026E000EDB
:1014C000036E000E046EB4EF0BF0055001260650BB
:1014D0000222075003220850042204A072EF0AF0EF
:1014E00074EF0AF020EF0BF010A079EF0AF07BEF19
:1014F0000AF081EF0AF0D89010300109106E83EFE6
:101500000AF0D890103201A088EF0AF08AEF0AF0B2
:101510008BEF0AF0108E04340432033202320132AF
:101520000F2A20EF0BF00550015C065002580750BF
:1015300003580450800A096E0850800A0958D8B030
:10154000A4EF0AF0A6EF0AF0D1EF0AF00150055C13
:10155000096E025006580A6E035007580B6E04506D
:1015600008580C6EFF0E0924016EFF0E0A20026E51
:10157000FF0E0B20036EFF0E0C20046E800E0D1A62
:10158000106C1050D8A4C7EF0AF0C9EF0AF0D9EFD9
:101590000AF0010E0126000E022203220422D9EFD6
:1015A0000AF00550015E0650025A0750035A0850CF
:1015B000045A0150021003100410D8A4E2EF0AF0FC
:1015C000E4EF0AF019EF0BF01050D8A4EAEF0AF09C
:1015D000ECEF0AF019EF0BF0000E016E000E026E38
:1015E000000E036E000E046EB4EF0BF0D8900136BF
:1015F00002360336043610AE00EF0BF002EF0BF0AC
:1016000003EF0BF0018010A008EF0BF00AEF0BF0D6
:101610000EEF0BF0D880103610EF0BF0D89010368C
:101620000F50D8B416EF0BF018EF0BF019EF0BF0CA
:101630000F0603AE1EEF0BF020EF0BF0F6EF0AF0F3
:10164000000E0E6E10AE27EF0BF029EF0BF041EFFE
:101650000BF010C009F07F0E0916D8B432EF0BF072
:1016600034EF0BF038EF0BF0010E0E6E41EF0BF084
:1016700001A03DEF0BF03FEF0BF041EF0BF034EF2B
:101680000BF00E50D8B447EF0BF049EF0BF074EFAE
:101690000BF0010E0126000E02220322042204A0F8
:1016A00054EF0BF056EF0BF074EF0BF001C009F0A4
:1016B00002C00AF003C00BF004C00CF00C340C3272
:1016C0000B320A32093209C001F00AC002F00BC025
:1016D00003F00CC004F00F28D8B471EF0BF073EFD7
:1016E0000BF074EF0BF00F2A0F28D8B47AEF0BF041
:1016F0007CEF0BF084EF0BF00F50D8A482EF0BF0CF
:1017000084EF0BF096EF0BF0000E016E000E026EF0
:10171000000E036E000E046E0F50D8A492EF0BF073
:1017200094EF0BF096EF0BF0000E0D6E0FA09BEFF9
:101730000BF09DEF0BF0A0EF0BF0038EA1EF0BF081
:10174000039ED8900F30046E0DAEA9EF0BF0ABEFF7
:101750000BF0ACEF0BF0048E01C001F002C002F000
:1017600003C003F004C004F012000450800B0D6E9F
:1017700004500424136E03AEC0EF0BF0C2EF0BF065
:10178000C3EF0BF013801350D8B4C9EF0BF0CBEFBD
:101790000BF0DEEF0BF01328D8A4D1EF0BF0D3EF52
:1017A0000BF0DBEF0BF0000E016E000E026E000E70
:1017B000036E000E046E038EE6EF0BF0000E016E5A
:1017C000000E026E000E036E000E046E0850800BB9
:1017D0000D1A08500824126E07AEF1EF0BF0F3EF6C
:1017E0000BF0F4EF0BF012801250D8B4FAEF0BF0BC
:1017F000FCEF0BF00FEF0CF01228D8A402EF0CF066
:1018000004EF0CF00CEF0CF0000E056E000E066EEF
:10181000000E076E000E086E078E17EF0CF0000E1C
:10182000056E000E066E000E076E000E086E12505A
:10183000D8B41DEF0CF01FEF0CF027EF0CF0135095
:10184000D8A425EF0CF027EF0CF031EF0CF0000ED0
:10185000016E000E026E000E036E000E046EC9EFE4
:101860000DF007500102F3CF18F0F4CF19F0185023
:101870000E6E0F6A106A116A1950146E156A166A94
:10188000176A06500202F3CF18F0F4CF19F018507F
:101890000E26000E0F221022112219501426000EBF
:1018A00015221622172205500302F3CF18F0F4CFA9
:1018B00019F018500E26000E0F2210221122195076
:1018C0001426000E15221622172210C011F00FC088
:1018D00010F00EC00FF00E6A05500202F3CF18F0A0
:1018E000F4CF19F018500E2619500F22000E1022B6
:1018F000000E112206500102F3CF18F0F4CF19F0B8
:1019000018500E2619500F22000E1022000E112220
:1019100010C011F00FC010F00EC00FF00E6A05508D
:101920000102F3CF18F0F4CF19F018500E26195019
:101930000F22000E1022000E112207500202F3CFD8
:1019400018F0F4CF19F01850142619501522000E73
:101950001622000E172206500302F3CF18F0F4CF20
:1019600019F01850142619501522000E1622000ED8
:10197000172207500302F3CF18F0F4CF19F01850D4
:10198000096E19500A6E0B6A0C6A0BC00CF00AC083
:101990000BF009C00AF0096A095014260A501522F2
:1019A0000B5016220C5017220EC009F00FC00AF07F
:1019B00010C00BF011C00CF0190EE4EF0CF0D89031
:1019C0000C320B320A320932E82EDFEF0CF00950EC
:1019D00014260A5015220B5016220C50172210C044
:1019E00011F00FC010F00EC00FF00E6A125013C0AD
:1019F00009F00A6A0926000E0A22820E0924186ECE
:101A0000FF0E0A20196E1AEF0DF0D8901436153615
:101A10001636173611AE0FEF0DF011EF0DF012EF75
:101A20000DF01480D8900E360F3610361136180689
:101A3000D8A0190616AE1FEF0DF021EF0DF005EF3F
:101A40000DF0000E126E11AE28EF0DF02AEF0DF022
:101A50004EEF0DF0FF0E0E14096EFF0E0F140A6EFE
:101A6000FF0E10140B6E7F0E11140C6E09500A102D
:101A70000B100C10D8B43FEF0DF041EF0DF045EF17
:101A80000DF0010E126E4EEF0DF014A04AEF0DF0A6
:101A90004CEF0DF04EEF0DF041EF0DF01250D8B4B9
:101AA00054EF0DF056EF0DF07AEF0DF0010E142605
:101AB000000E15221622172217A061EF0DF063EF1A
:101AC0000DF07AEF0DF014C009F015C00AF016C041
:101AD0000BF017C00CF00C340C320B320A32093206
:101AE00009C014F00AC015F00BC016F00CC017F0B6
:101AF000184A192A19BE85EF0DF0195008E1182867
:101B0000D8A085EF0DF087EF0DF091EF0DF0000EEE
:101B1000146E000E156E800E166E7F0E176EBFEFE0
:101B20000DF019BE9EEF0DF0195006E11804D8B063
:101B30009CEF0DF09EEF0DF0AAEF0DF0000E146E6D
:101B4000000E156E000E166E000E176E000E0D6E56
:101B5000BFEF0DF018C013F0FF0E1416FF0E151690
:101B60007F0E1616000E171613A0B9EF0DF0BBEF7F
:101B70000DF0BCEF0DF0168ED8901330176E0D508F
:101B8000171214C001F015C002F016C003F017C000
:101B900004F012000450800B116E04500424186EDF
:101BA00003AED5EF0DF0D7EF0DF0D8EF0DF01880A4
:101BB0001850D8B4DEEF0DF0E0EF0DF0F5EF0DF0BA
:101BC0001828D8A4E6EF0DF0E8EF0DF0F0EF0DF0D7
:101BD000000E016E000E026E000E036E000E046E0B
:101BE000038E000E046EFDEF0DF0000E016E000E70
:101BF000026E000E036E000E046E0850800B111A68
:101C000008500824196E07AE08EF0EF00AEF0EF028
:101C10000BEF0EF019801950D8B411EF0EF013EF3E
:101C20000EF028EF0EF01928D8A419EF0EF01BEFD4
:101C30000EF023EF0EF0000E056E000E066E000E85
:101C4000076E000E086E078E000E086E30EF0EF065
:101C5000000E056E000E066E000E076E000E086E7A
:101C60000550061007100810D8A439EF0EF03BEF0E
:101C70000EF053EF0EF0000E016E000E026E000E1D
:101C8000036E000E046E800E03127F0E04121150BC
:101C9000041201C001F002C002F003C003F004C04E
:101CA00004F096EF0FF01850D8A459EF0EF05BEF48
:101CB0000EF065EF0EF0000E016E000E026E000ECB
:101CC000036E000E046E96EF0FF0195018C009F065
:101CD0000A6A095E000E0A5A7F0E0924126E000E6F
:101CE0000A20136E01C00DF002C00EF003C00FF009
:101CF00004C010F0000E016E000E026E000E036EA6
:101D0000000E046E000E146E000E156E000E166EA0
:101D1000000E176E000E196EC6EF0EF01950D8B4F3
:101D200094EF0EF096EF0EF0ADEF0EF0D8900D366A
:101D30000E360F361036D89001360236033604368A
:101D400017AEA5EF0EF0A7EF0EF0A8EF0EF0018092
:101D5000D890143615361636173605500D5C0650D9
:101D60000E5807500F5808501058D8A0BAEF0EF070
:101D7000BCEF0EF0C5EF0EF0178C05500D5E06504F
:101D80000E5A07500F5A0850105A192A190E196482
:101D9000CCEF0EF0CEEF0EF08EEF0EF00D500E10D9
:101DA0000F101010D8B4D7EF0EF0D9EF0EF0F1EFFE
:101DB0000EF01480F1EF0EF0D890013602360336A3
:101DC000043617AEE6EF0EF0E8EF0EF0E9EF0EF096
:101DD0000180D89014361536163617361206D8A05C
:101DE000130603AEF6EF0EF0F8EF0EF0DCEF0EF098
:101DF000000E196E17AEFFEF0EF001EF0FF025EF9A
:101E00000FF0FF0E1414096EFF0E15140A6EFF0E6C
:101E100016140B6E7F0E17140C6E09500A100B105F
:101E20000C10D8B416EF0FF018EF0FF01CEF0FF0F6
:101E3000010E196E25EF0FF001A021EF0FF023EF37
:101E40000FF025EF0FF018EF0FF01950D8B42BEF6B
:101E50000FF02DEF0FF051EF0FF0010E0126000EE5
:101E600002220322042204A038EF0FF03AEF0FF011
:101E700051EF0FF001C009F002C00AF003C00BF0EF
:101E800004C00CF00C340C320B320A32093209C097
:101E900001F00AC002F00BC003F00CC004F0124ABB
:101EA000132A13BE5CEF0FF0135008E11228D8A0DC
:101EB0005CEF0FF05EEF0FF069EF0FF0000E136EA6
:101EC0001268000E016E000E026E000E036E000E10
:101ED000046E13BE76EF0FF0135006E11204D8B073
:101EE00074EF0FF076EF0FF084EF0FF0000E136E2B
:101EF000000E126E000E016E000E026E000E036EDA
:101F0000000E046E000E116E12C018F018A08BEFB8
:101F10000FF08DEF0FF090EF0FF0038E91EF0FF0B9
:101F2000039ED8901830046E47EF0EF0120039C0AF
:101F3000D9FF3AC0DAFFDECFF6FFDDCFF7FF0800AA
:101F4000F550250AD8A4A7EF0FF0A9EF0FF04AEF3C
:101F500011F039C0D9FF3AC0DAFFDE2A000EDD22C7
:101F6000000E0001A36F000EA26FA2C05EF05C68BD
:101F70005D68000E406E000E3F6EE9EF0FF05E826E
:101F800039C0D9FF3AC0DAFFDE2A000EDD22E9EFC0
:101F90000FF0000E406E010E3F6EE9EF0FF039C0FA
:101FA000D9FF3AC0DAFFDECFF6FFDDCFF7FF08003A
:101FB000F5503D6E3E6A3E50000AD8B4E2EF0FF095
:101FC000C9EF0FF03D50300AD8B4BFEF0FF0C9EFA2
:101FD0000FF03F504010D8B4F0EF0FF0F2EF0FF0D9
:101FE000CFEF0FF039C0D9FF3AC0DAFFDECFF6FFEE
:101FF000DDCFF7FF0800F5502E0AD8A402EF10F04D
:1020000004EF10F019EF10F039C0D9FF3AC0DAFF31
:10201000DE2A000EDD2239C007F03AC008F03BC0CE
:1020200009F03CC00AF06BEC16F007C05CF008C089
:102030005DF039C0D9FF3AC0DAFFDECF46F0DDCF20
:1020400047F046C0F6FF47C0F7FF0800F550750A95
:10205000D8A42DEF10F02FEF10F075EF10F03BC06B
:10206000D9FF3CC0DAFFDFCF3DF0020EDE26DFCF26
:102070003EF0000EDD223DC0D9FF3EC0DAFFDECFCC
:1020800041F0DDCF42F0010E46243D6E000E4720A8
:102090003E6E39C0D9FF3AC0DAFF3DC0DEFF3EC018
:1020A000DDFF5FEF10F037C01CF038C01DF041C0FD
:1020B0001EF042C01FF085EC13F05EEF11F046C039
:1020C000F6FF47C0F7FF0800F5503D6E3E6A3E50F0
:1020D000000AD8B46EEF10F075EF10F03D50750A9D
:1020E000D8B453EF10F075EF10F039C0D9FF3AC0F3
:1020F000DAFFDECF46F0DDCF47F046C0F6FF47C03F
:10210000F7FF0800F5CF45F092EF10F0464A472A56
:10211000ABEF10F06C0E456EABEF10F0000E456E9D
:10212000ABEF10F045503D6E3E6A3E50000AD8B409
:102130009CEF10F08EEF10F03D504C0AD8B486EFB3
:1021400010F02A0AD8B48AEF10F00A0AD8B486EF41
:1021500010F08EEF10F046C0F6FF47C0F7FF080002
:10216000F550660AD8A4B7EF10F0B9EF10F041EFC0
:1021700011F0EFEF10F03BC0D9FF3CC0DAFFDFCF2A
:102180003DF0040EDE26DFCF3EF0000EDD223DC026
:10219000D9FF3EC0DAFFDECF41F0DECF42F0DECF26
:1021A00043F0DECF44F004EF11F03BC0D9FF3CC058
:1021B000DAFFDFCF3DF0040EDE26DFCF3EF0000E6B
:1021C000DD223DC0D9FF3EC0DAFFDECF41F0DECFD9
:1021D00042F0DECF43F0DECF44F004EF11F0455083
:1021E0003D6E3E6A3E50000AD8B4F9EF10F004EF9D
:1021F00011F03D504C0AD8B4D5EF10F0200AD8B4F5
:10220000BBEF10F004EF11F0010E46243D6E000EFE
:1022100047203E6E39C0D9FF3AC0DAFF3DC0DEFF2D
:102220003EC0DDFF2BEF11F037C02EF038C02FF08D
:1022300041C030F042C031F043C032F044C033F00E
:1022400046C0F6FF47C0F7FF0800F5CF34F023EC97
:1022500004F05EEF11F046C0F6FF47C0F7FF08003C
:10226000F5503D6E3E6A3E50000AD8B43AEF11F088
:1022700041EF11F03D50660AD8B414EF11F041EF70
:1022800011F039C0D9FF3AC0DAFFDE2A000EDD2294
:102290005EEF11F039C0D9FF3AC0DAFFDECFF6FFAA
:1022A000DDCFF7FF0800F550016E026A37C003F07A
:1022B00038C004F006EC16F041EF11F012002AECE1
:1022C0001AF023EC17F01CEC1AF096909682968484
:1022D000080E596E9D0E586E060EE82EFED7582E2B
:1022E000FCD7592EFAD7968096929684080E596E8E
:1022F0009D0E586E060EE82EFED7582EFCD7592E8E
:10230000FAD7968096829694080E596E9D0E586E56
:10231000060EE82EFED7582EFCD7592EFAD7010EFE
:10232000046E010E9DEC15F0010E056E080E066E92
:1023300064EC17F0010E046E020E9DEC15F0290EF0
:10234000056E080E066E64EC17F00C0E046E020E9D
:102350009DEC15F023EC1AF01F0E596E710E586E9D
:102360001E0EE82EFED7582EFCD7592EFAD700D0D5
:1023700015EC1AF01CEC1AF0070E596E170E586E79
:102380006A0EE82EFED7582EFCD7592EFAD700D069
:10239000010E046E010E9DEC15F01C0E056E080E6C
:1023A000066E64EC17F0080E596E9D0E586E060E00
:1023B000E82EFED7582EFCD7592EFAD7000E5A6EAB
:1023C00007EC1AF0050E596E910E586ED00EE82EDD
:1023D000FED7582EFCD7592EFAD75A2A0E0E5A6419
:1023E000F4EF11F0F6EF11F0E0EF11F0050E596E79
:1023F000910E586ED00EE82EFED7582EFCD7592ECF
:10240000FAD7000E5B6E0EEC1AF0050E596E910EA7
:10241000586ED00EE82EFED7582EFCD7592EFAD77C
:102420005B2A0E0E5B6417EF12F019EF12F003EF48
:1024300012F01CEC1AF0070E596E170E586E6A0E49
:10244000E82EFED7582EFCD7592EFAD700D0010E11
:10245000046E010E9DEC15F0A40E0001926F000EAB
:10246000936F350E946F080E956F030E976F9669F4
:10247000ADEC18F0A40E056E000E066E64EC17F0BD
:10248000010E046E020E9DEC15F0A40E0001926F79
:10249000000E936F0F0E946F080E956F5C0E966F83
:1024A0008F0E976FC20E986F410E996FADEC18F0BA
:1024B000A40E056E000E066E64EC17F0170E596E32
:1024C000D50E586E160EE82EFED7582EFCD7592E74
:1024D000FAD700D01CEC1AF0020E596E860E586E18
:1024E000990EE82EFED7582EFCD7592EFAD700F0B9
:1024F00065EF11F000EF00F09AC02AF09BC02BF0BE
:102500009CC02CF09DC02DF01AC02AF01BC02BF0EF
:102510001CC02CF01DC02DF0810E1E6EFF0E1F6E14
:102520002AC020F02BC021F02CC022F02DC023F0B7
:10253000180EA0EF12F0D89023322232213220322E
:10254000E82E9BEF12F020501E24286E000E1F2054
:10255000296E29BEB5EF12F0295009E1170E285C4B
:10256000D8A0B5EF12F0B7EF12F0C1EF12F01AC019
:102570001AF01BC01BF01CC01CF01DC01DF084EF26
:1025800013F029BEC6EF12F0C8EF12F038EF13F0C7
:1025900028C01EF0FF0E1F6EFF0E206E7F0E216EF4
:1025A000000E226E1E66D7EF12F0DFEF12F022341B
:1025B0002232213220321F321E2ED2EF12F01FC0E3
:1025C00024F020C025F021C026F022C027F024509E
:1025D0002A141E6E25502B141F6E26502C14206EAC
:1025E00027502D14216E1E501F1020102110D8A42A
:1025F000FCEF12F0FEEF12F000EF13F0B7EF12F065
:102600002AC01EF02BC01FF02CC020F02DC021F0DE
:10261000200E10EF13F0D890213220321F321E32DC
:10262000E82E0BEF13F01E501F1020102110D8B40D
:102630001CEF13F01EEF13F026EF13F024502A26A0
:1026400025502B2226502C2227502D22241C1E6E72
:10265000251C1F6E261C206E271C216E1E502A165C
:102660001F502B1620502C1621502D167CEF13F0E6
:102670002AC01EF02BC01FF02CC020F02DC021F06E
:10268000200E48EF13F0D890213220321F321E3234
:10269000E82E43EF13F01E501F1020102110D8A475
:1026A00054EF13F056EF13F060EF13F0000E2A6EA4
:1026B000000E2B6E000E2C6E000E2D6E7CEF13F0B4
:1026C000D8902A341E6E2B341F6E2C34206E2D347D
:1026D000216E1E501F1020102110D8B472EF13F07D
:1026E00074EF13F07CEF13F0000E2A6E000E2B6EC9
:1026F000800E2C6EBF0E2D6E2AC01AF02BC01BF060
:102700002CC01CF02DC01DF012005DBE8AEF13F02E
:102710008CEF13F08DEF13F05E925DBE94EF13F02B
:1027200092EF13F09AEF13F0000E216E010E206E5F
:102730009EEF13F05CC020F05DC021F0A2C022F03B
:10274000A3C023F0000E256E4F0E246E000E010173
:102750004F6FD5EF13F02406D8A02506000E2424D1
:10276000D96E010E2520DA6E1EC001F01FC002F0E6
:10277000000E046E0A0E036E4DEC18F00150300F7F
:10278000DF6E2006D8A021062206D8A023061EC090
:1027900001F01FC002F0000E046E0A0E036EE0ECA2
:1027A00017F001C01EF002C01FF024502510D8B44D
:1027B000DCEF13F0DEEF13F008EF14F01E501F10E3
:1027C000D8A4E5EF13F0E7EF13F0ABEF13F021BE61
:1027D000F4EF13F0215006E12004D8B0F2EF13F02B
:1027E000F4EF13F0ABEF13F023BEFFEF13F0235021
:1027F00008E12204D8A0FFEF13F001EF14F008EF76
:1028000014F05EB206EF14F008EF14F0ABEF13F023
:102810001CC011F01DC012F0000E2424136E010E16
:102820002520146E22C015F023C016F0A3EC17F07B
:102830001200033404340A6E0A50D8A422EF14F0B4
:1028400024EF14F02EEF14F0000E016E000E026E55
:10285000000E036E000E046E9BEF14F001C005F035
:1028600002C006F003C007F004C008F0200E3EEFDF
:1028700014F0D8900832073206320532E82E39EFCC
:1028800014F00550096E038EFF0E0116FF0E02169E
:10289000FF0E0316000E0416960E0A5E0ABE55EFD2
:1028A00014F053EF14F06BEF14F00A50800A970FF6
:1028B000D8B05DEF14F05FEF14F061EF14F024EF87
:1028C00014F0D89004320332023201320A3E61EF32
:1028D00014F083EF14F01F0E0A6471EF14F073EF1D
:1028E00014F07BEF14F024EF14F0D8900136023688
:1028F000033604360A060A50D8A481EF14F083EF99
:1029000014F075EF14F00950D8B489EF14F08BEF80
:1029100014F093EF14F0041E031E021E016C000E4F
:1029200002220322042201C001F002C002F003C00F
:1029300003F004C004F01200000E1A14226E000E00
:102940001B14236E800E1C14246E7F0E1D14256E26
:102950002250231024102510D8A4B1EF14F0B3EFA7
:1029600014F0BBEF14F0000E1A6E000E1B6E000E7A
:102970001C6E000E1D6E000E1E14226E000E1F1423
:10298000236E800E2014246E7F0E2114256E22509B
:10299000231024102510D8A4D0EF14F0D2EF14F097
:1029A000DAEF14F0000E1E6E000E1F6E000E206E89
:1029B000000E216E1DAEDFEF14F0E1EF14F0EAEF30
:1029C00014F01A6C1B1ED8B01B2A1C1ED8B01C2A6F
:1029D000800E1D5621AEEFEF14F0F1EF14F0FAEF78
:1029E00014F01E6C1F1ED8B01F2A201ED8B0202A3B
:1029F000800E2156000E1A1A000E1B1A000E1C1A09
:102A0000800E1D1A000E1E1A000E1F1A000E201A2C
:102A1000800E211A1E501A5C1F501B5820501C5843
:102A200021501D58D8B017EF15F019EF15F01CEF15
:102A300015F0D8901DEF15F0D88012009EC00BF055
:102A40009FC00CF0A0C00DF0A1C00EF001C00BF0B3
:102A500002C00CF003C00DF004C00EF00BC005F076
:102A60000CC006F00DC007F00EC008F0180E3EEFC7
:102A700015F0D8900832073206320532E82E39EFC9
:102A800015F00550096E0A6A09500A10D8A44BEFD8
:102A900015F04DEF15F06DEF15F0D8900B34056E75
:102AA0000C34066E0D34076E0E34086E0550061099
:102AB00007100810D8A45FEF15F061EF15F067EF6D
:102AC00015F0000E026E020E016E9CEF15F0000E66
:102AD000026E030E016E9CEF15F009280A10D8A4AF
:102AE00074EF15F076EF15F098EF15F00BC005F0C8
:102AF0000CC006F00DC007F00EC008F0090ED8900B
:102B00000536063607360836E82E7FEF15F00550F5
:102B1000061007100810D8B490EF15F093EF15F0D9
:102B2000010E94EF15F0000E016E026A9CEF15F095
:102B3000000E026E040E016E1200056E0504D8A48C
:102B4000A4EF15F0A6EF15F0B7EF15F004507F0FC6
:102B5000086E08380F0B066E08500F0B076E0650F4
:102B6000F7EC19F00750F7EC19F005EF16F0020E2C
:102B70000518D8A4BEEF15F0C0EF15F0D1EF15F091
:102B80000450BF0F086E08380F0B066E08500F0B6D
:102B9000076E0650F7EC19F00750F7EC19F005EF47
:102BA00016F0030E0518D8A4D8EF15F0DAEF15F0DB
:102BB000EBEF15F00450930F086E08380F0B066EFC
:102BC00008500F0B076E0650F7EC19F00750F7ECA2
:102BD00019F005EF16F0040E0518D8A4F2EF15F061
:102BE000F4EF15F005EF16F00450D30F086E083817
:102BF0000F0B066E08500F0B076E0650F7EC19F01E
:102C00000750F7EC19F005EF16F01200035004100E
:102C1000D8B40DEF16F00FEF16F018EF16F00350C2
:102C20000410D8A416EF16F018EF16F01DEF16F0EA
:102C3000015031EC1AF06AEF16F020EE0AF0035062
:102C4000D9260450DA22DE50DE10D8B42AEF16F06E
:102C50002CEF16F047EF16F020EE0AF00350D926BD
:102C60000450DA2210EE03F00350E1260450E22271
:102C7000DE50E65CE650800A096EDE50800A095894
:102C8000D8B045EF16F047EF16F06AEF16F020EED9
:102C900003F00350D9260450DA22DECF05F0DDCF51
:102CA00006F003C0D9FF04C0DAFFDECF07F0DDCFA6
:102CB00008F005500724D96E06500820DA6E01C0CE
:102CC000DFFF20EE03F00350D9260450DA22DE2A7B
:102CD000000EDD221200000E0F6E000E0E6E07C0F9
:102CE000D9FF08C0DAFFDECFF6FFDDCFF7FF08001F
:102CF000F5502A0AD8A47FEF16F081EF16F0B5EF51
:102D000016F007C0D9FF08C0DAFFDE2A000EDD2268
:102D100009C0D9FF0AC0DAFFDFCF0BF0020EDE26B2
:102D2000DFCF0CF0000EDD220BC0D9FF0CC0DAFFA4
:102D3000DECF0EF0DDCF0FF0C9EF16F00EC001F0C0
:102D40000FC002F0000E046E0A0E036EE4EC19F0E0
:102D50000D5001240E6E000E02200F6E07C0D9FF29
:102D600008C0DAFFDE2A000EDD2207C0D9FF08C046
:102D7000DAFFDECFF6FFDDCFF7FF0800F550D00F0A
:102D80000D6E090E0D64C7EF16F0C9EF16F09EEF39
:102D900016F00EC007F00FC008F01200000E01146C
:102DA000096E000E02140A6E800E03140B6E7F0E65
:102DB00004140C6E09500A100B100C10D8A4E3EF89
:102DC00016F0E5EF16F0EDEF16F0000E016E000EB6
:102DD000026E000E036E000E046E000E0514096EE6
:102DE000000E06140A6E800E07140B6E7F0E081478
:102DF0000C6E09500A100B100C10D8A402EF17F03B
:102E000004EF17F00CEF17F0000E056E000E066EC3
:102E1000000E076E000E086E055001180FE10650F7
:102E200002180CE10750031809E108500418D8B43F
:102E30001CEF17F01EEF17F021EF17F0D89022EFDC
:102E400017F0D8801200959A959895909592959440
:102E50009596000E7FEC18F04E0E046EEB0EE82EE9
:102E6000FED7042EFCD700F0030EF7EC19F0140E79
:102E7000046E7A0EE82EFED7042EFCD7030EF7EC74
:102E800019F02B0E046EDA0EE82EFED7042EFCD7B6
:102E900000D0030EF7EC19F0020EF7EC19F0020E59
:102EA000F7EC19F0080EF7EC19F0000EF7EC19F03A
:102EB0000C0EF7EC19F0000EF7EC19F0060EF7EC1B
:102EC00019F01CEC1AF01200000E0A6E000E096ECA
:102ED00084EF17F009500524076E0A500620086E8B
:102EE00007C0F6FF08C0F7FFF86A070EF76403D0C3
:102EF0000800F55005D0F6CFE1FFF7CFE2FFE7502D
:102F0000CAEC19F0094A0A2A09500524076E0A502A
:102F10000620086E07C0F6FF08C0F7FFF86A070E24
:102F2000F76403D00800F55005D0F6CFE1FFF7CFE6
:102F3000E2FFE7500009D8A4A0EF17F0A2EF17F0C6
:102F40006AEF17F0120016BEA8EF17F0AAEF17F0FD
:102F5000B0EF17F015C01AF016C01BF0B4EF17F061
:102F6000000E1B6E000E1A6E000E196E000E186E0B
:102F7000C6EF17F0000E026E200E016E11C003F0B6
:102F800012C004F006EC16F0184A192A1A50185C00
:102F90001950800A176E1B50800A1758D8A0D3EF1B
:102FA00017F0D5EF17F0BAEF17F013C00AF014C0FE
:102FB0000BF011C00CF012C00DF06CEC19F0120007
:102FC000000E066E000E056E03500410D8B4EBEF31
:102FD00017F0EDEF17F015EF18F0010E076EF5EF93
:102FE00017F0D89003360436072A04AEFAEF17F02C
:102FF000FCEF17F0F1EF17F0D890053606360350C6
:10300000015C04500258D8A008EF18F00AEF18F03D
:103010000FEF18F00350015E0450025A0580D8905B
:1030200004320332072EFCEF17F005C001F006C092
:1030300002F0120004BE29EF18F004500310021031
:1030400006E10104D8B027EF18F029EF18F044EF9B
:1030500018F001C005F002C006F003C007F004C07C
:1030600008F0051E061E071E081E052A000E062271
:103070000722082205C001F006C002F007C003F0D5
:1030800008C004F04CEF18F001C001F002C002F0DB
:1030900003C003F004C004F0120003500410D8B4BD
:1030A00054EF18F056EF18F07AEF18F0010E056E95
:1030B0005EEF18F0D89003360436052A04AE63EFAD
:1030C00018F065EF18F05AEF18F00350015C045047
:1030D0000258D8A06EEF18F070EF18F074EF18F0E7
:1030E0000350015E0450025AD89004320332052E78
:1030F00065EF18F001C001F002C002F01200016E8D
:1031000001A085EF18F087EF18F08AEF18F08C8097
:103110008BEF18F08C9001A290EF18F092EF18F05E
:1031200095EF18F08C8296EF18F08C9201A49BEF2B
:1031300018F09DEF18F0A0EF18F08C84A1EF18F0B4
:103140008C9401A6A6EF18F0A8EF18F0ABEF18F0DA
:103150008C86ACEF18F08C961200960E4A6E000E1C
:103160004B6E92C04CF093C04DF0000E506E000EAE
:103170004F6E000E576E000E566E4C0E00018C6F97
:10318000000E8D6F94C08EF095C08FF04A0E906F38
:10319000000E916FD5EC18F04F5000019225D96EBA
:1031A00050509321DA6EDF6A12008EC048F08FC053
:1031B00049F0E9EF18F08CC037F08DC038F0480EB8
:1031C000396E000E3A6E90C03BF091C03CF097EC27
:1031D0000FF048C0F6FF49C0F7FF0800F55000099E
:1031E000D8A4F5EF18F0F7EF18F0DBEF18F0000EA9
:1031F00000018D6F000E8C6F120003C009F004C037
:103200000AF001C007F002C008F017EF19F009C07A
:10321000D9FF0AC0DAFFDF500B6E094A0A2A07C03D
:10322000D9FF08C0DAFF0BC0DFFF074A082A0506EE
:10323000D8A00606052806E10628D8A422EF19F032
:1032400024EF19F007EF19F012005C0EF66E340E41
:10325000F76E000EF86E00EEB8F010EE06F0090002
:10326000F5CFEEFFE550E150FAE101EE00F0500E2F
:10327000EE6AE806FDE100EE9AF01E0EEE6AE80640
:10328000FDE15E6A5D6A5C6A000EF86E00015FEF48
:1032900011F0000E1E1A000E1F1A000E201A800ECA
:1032A000211A1AC001F01BC002F01CC003F01DC09F
:1032B00004F01EC005F01FC006F020C007F021C0BA
:1032C00008F055EC09F001C01AF002C01BF003C071
:1032D0001CF004C01DF01200000E106E000E0F6EE8
:1032E0007DEF19F00EC001F0026A0CC003F00DC0B2
:1032F00004F006EC16F00F4A102A0F500A24D96E7B
:1033000010500B20DA6EDF500E6E0E50D8A48BEFEB
:1033100019F08DEF19F072EF19F0120003C005F0EB
:1033200004C006F001C007F002C008F005C0F6FFB7
:1033300006C0F7FF054A062A07C0D9FF08C0DAFF12
:10334000074A082A0800F5CFDFFFDF50D8A4ABEF0B
:1033500019F0ADEF19F096EF19F0120001500210BC
:1033600003100410D8B4B7EF19F0B9EF19F0C1EF9A
:1033700019F0000E011A000E021A000E031A800E38
:10338000041A01C001F002C002F003C003F004C03F
:1033900004F01200046E04500F0B026E0450F00B88
:1033A000036E8C8A03380F0B7FEC18F08C88280E84
:1033B000E82EFED78C9802507FEC18F08C88280EEF
:1033C000E82EFED78C98120001500302F3CF05F0CF
:1033D000F4CF06F001500402F35006260250030217
:1033E000F350062605C001F006C002F01200036E7D
:1033F0008C9A03507FEC18F08C88100E026E940E9D
:10340000E82EFED7022EFCD700D08C981200010EB9
:10341000F7EC19F00C0EF7EC19F01200010EF7ECB6
:1034200019F0080EF7EC19F01200000EF7EC19F085
:103430000C0EF7EC19F01200000EF7EC19F0010E6B
:10344000F7EC19F01200000EF7EC19F00F0EF7EC84
:1034500019F01200000E0F015E6F12005C8FC24166
:04346000FF03120054
:020000040030CA
:0E0000000003583CFFD184FF0FC00FE00F40FB
:00000001FF
