:040000001BEF1AF0E8
:1008000000566F6C74616A652025302E3266004C8C
:1008100061204C6563747572613A20004144433035
:10082000202042544E203000414443312042544E57
:10083000203100414443322042544E203200696E40
:0708400066006E616E00000E
:10084800000E0001816F57C082F058C083F059C074
:1008580084F05AC085F085BF36EF04F034EF04F019
:100868004AEF04F0010E816F82C001F083C002F0EC
:1008780084C003F085C004F0D2EC19F001C082F006
:1008880002C083F003C084F004C085F0000E0001AC
:10089800876F000E866FC7C071F0C8C072F08151B3
:1008A800D8B459EF04F05BEF04F06FEF04F0815116
:1008B800D8A461EF04F063EF04F069EF04F0000ED0
:1008C800676F2B0E666F6DEF04F0000E676F2D0ECD
:1008D800666F66C081F082C001F083C002F084C0F8
:1008E80003F085C004F0D1EC15F001040210D8A47F
:1008F80080EF04F082EF04F0B5EF04F000018151BD
:10090800D8B489EF04F08BEF04F094EF04F081C0C1
:1009180000F17107D8A07207000E876F010E866F6D
:10092800000E8625016E010E8721026E3E0E036EB3
:10093800080E046EB2EC19F00001FD0E7127FF0ECF
:10094800722355C011F056C012F0000E136E010E3E
:10095800146E71C015F072C016F056EC18F054EF12
:1009680009F082C001F083C002F084C003F085C0A2
:1009780004F0D1EC15F001500210D8A4C6EF04F031
:10098800C8EF04F0E8EF04F000018151D8B4CFEFCC
:1009980004F0D1EF04F0DAEF04F081C000F1710740
:1009A800D8A07207000E876F010E866F000E86258D
:1009B800016E010E8721026E420E036E080E046E50
:1009C800B2EC19F0A0EF04F0000E0001886F000EE1
:1009D800896F800E8A6F3F0E8B6F000E706F000E4E
:1009E8006F6F82C001F083C002F084C003F085C03D
:1009F80004F0000E056E000E066E000E076E000E67
:100A0800086E81EC17F0D8B00CEF05F00EEF05F08A
:100A1800EDEF05F01BEF05F073C088F074C089F0A6
:100A280075C08AF076C08BF000016F4B702B88C0C0
:100A38000FF089C010F08AC011F08BC012F0000EC0
:100A4800136E000E146E200E156E410E166EB5EC68
:100A58000BF00FC073F010C074F011C075F012C025
:100A680076F000017351825D016E74518359026EF4
:100A780075518459036E76518559046E93EC18F0BC
:100A880004BE52EF05F004500310021009E1020EF3
:100A9800015CD8A052EF05F054EF05F010EF05F017
:100AA80073C028F074C029F075C02AF076C02BF006
:100AB80082C02CF083C02DF084C02EF085C02FF0AA
:100AC8004FEC15F0D8A06BEF05F06DEF05F010EFC7
:100AD80005F000018851825D016E89518359026ECB
:100AE8008A518459036E8B518559046E93EC18F022
:100AF80004BE8CEF05F004500310021007E1020E4B
:100B0800015CD8B08AEF05F08CEF05F0D4EF05F062
:100B180088C082F089C083F08AC084F08BC085F0D9
:100B2800EDEF05F088C028F089C029F08AC02AF0C6
:100B38008BC02BF0000E2C6E000E2D6E200E2E6E2C
:100B4800410E2F6EAFEC0FF028C088F029C089F055
:100B58002AC08AF02BC08BF000016F07D8A070075D
:100B68008851825D016E89518359026E8A51845978
:100B7800036E8B518559046E93EC18F004BED2EFC6
:100B880005F004500310021007E1020E015CD8B012
:100B9800D0EF05F0D2EF05F0D4EF05F08CEF05F0BB
:100BA80082C028F083C029F084C02AF085C02BF0C9
:100BB80088C02CF089C02DF08AC02EF08BC02FF091
:100BC8004FEC15F0D8A0EBEF05F0EDEF05F096EF40
:100BD80005F05BC069F069C06AF00001CABFF7EFB1
:100BE80005F0F9EF05F0FFEF05F0C9C062F0CAC0E3
:100BF80063F003EF06F0000E636F060E626F62C0CB
:100C08006DF063C06EF06D4B6E2B660E6A19D8A43A
:100C180010EF06F012EF06F032EF06F070BF19EF92
:100C280006F017EF06F025EF06F0000E886F000EAD
:100C3800896F800E8A6F3F0E8B6F000E706F000EEB
:100C48006F6F670E6919D8B42CEF06F02EEF06F017
:100C580032EF06F06F516D2770516E23000E806FD2
:100C6800000E7F6F82C077F083C078F084C079F07F
:100C780085C07AF088C073F089C074F08AC075F0B6
:100C88008BC076F0C3EF06F077C028F078C029F063
:100C980079C02AF07AC02BF088C02CF089C02DF0DA
:100CA8008AC02EF08BC02FF0AFEC0FF028C041F0B7
:100CB80029C042F02AC043F02BC044F0E9EC12F0FE
:100CC80041C07BF042C07CF043C07DF044C07EF060
:100CD8007BC001F07CC002F07DC003F07EC004F050
:100CE800CCEC14F001C06BF002C06CF077C028F0B7
:100CF80078C029F079C02AF07AC02BF07BC013F0B5
:100D08007CC014F07DC015F07EC016F088C00FF0CE
:100D180089C010F08AC011F08BC012F0B5EC0BF04E
:100D28000FC02CF010C02DF011C02EF012C02FF003
:100D38006DEC19F028C077F029C078F02AC079F056
:100D48002BC07AF088C028F089C029F08AC02AF020
:100D58008BC02BF0000E2C6E000E2D6E200E2E6E0A
:100D6800410E2F6EAFEC0FF028C088F029C089F033
:100D78002AC08AF02BC08BF000017F4B802B6D516D
:100D88007F5D8051800A5C6E6E51800A5C58D8A0E5
:100D9800D0EF06F0D2EF06F048EF06F088C00FF06B
:100DA80089C010F08AC011F08BC012F0000E136ECB
:100DB800000E146EA00E156E400E166EB5EC0BF0FC
:100DC8000FC07BF010C07CF011C07DF012C07EF027
:100DD80077C028F078C029F079C02AF07AC02BF0C3
:100DE8007BC02CF07CC02DF07DC02EF07EC02FF093
:100DF8004FEC15F0D8B003EF07F005EF07F010EF50
:100E080007F0000E00017B6F000E7C6F000E7D6FF7
:100E1800000E7E6F39EF07F077C001F078C002F05E
:100E280079C003F07AC004F07BC005F07CC006F0FE
:100E38007DC007F07EC008F081EC17F0D8A027EF3E
:100E480007F029EF07F039EF07F000016BB12FEF3A
:100E580007F031EF07F039EF07F0000E7B6F000E57
:100E68007C6F000E7D6F000E7E6F82C001F083C024
:100E780002F084C003F085C004F07BC005F07CC09C
:100E880006F07DC007F07EC008F055EC09F001C0FF
:100E980077F002C078F003C079F004C07AF077C028
:100EA80028F078C029F079C02AF07AC02BF0000E1B
:100EB800136E000E146E200E156E410E166E73C062
:100EC8000FF074C010F075C011F076C012F0B5ECD8
:100ED8000BF00FC02CF010C02DF011C02EF012C076
:100EE8002FF04FEC15F0D8A07CEF07F07EEF07F05D
:100EF800A7EF07F000016F4B702B73C00FF074C0A1
:100F080010F075C011F076C012F0000E136E000ECE
:100F1800146E200E156E410E166EB5EC0BF00FC058
:100F280073F010C074F011C075F012C076F0660E40
:100F380000016A19D8A4A3EF07F0A5EF07F0A7EFFF
:100F480007F06D4B6E2B73C088F074C089F075C0C4
:100F58008AF076C08BF06FC060F070C061F0000E50
:100F68000001686F000E656F000E646F000E806FE1
:100F7800000E7F6FA5EF08F077C028F078C029F041
:100F880079C02AF07AC02BF088C02CF089C02DF0E7
:100F98008AC02EF08BC02FF0AFEC0FF028C041F0C4
:100FA80029C042F02AC043F02BC044F0E9EC12F00B
:100FB80041C07BF042C07CF043C07DF044C07EF06D
:100FC8007BC001F07CC002F07DC003F07EC004F05D
:100FD800CCEC14F002BEFCEF07F0025007E10A0E59
:100FE800015CD8B0FAEF07F0FCEF07F00CEF08F05F
:100FF8007BC001F07CC002F07DC003F07EC004F02D
:10100800CCEC14F001C06BF002C06CF011EF08F0EA
:10101800000E00016C6F090E6B6F00016851D8A4B7
:1010280018EF08F01AEF08F042EF08F061BF21EF5F
:1010380008F01FEF08F042EF08F0000E8625D96E81
:10104800010E8721DA6E2E0EDF6E864B872B710715
:10105800D8A07207010E686F42EF08F0000E8625CF
:10106800D96E010E8721DA6E300EDF6E864B872B24
:101078007107D8A072076407D8A065076451651185
:10108800D8A449EF08F04BEF08F032EF08F0000E53
:101098008625D96E010E8721DA6E6B51300FDF6E0F
:1010A800864B872B7107D8A0720777C028F078C0C5
:1010B80029F079C02AF07AC02BF07BC013F07CC0ED
:1010C80014F07DC015F07EC016F088C00FF089C0FE
:1010D80010F08AC011F08BC012F0B5EC0BF00FC005
:1010E8002CF010C02DF011C02EF012C02FF06DECB6
:1010F80019F028C077F029C078F02AC079F02BC001
:101108007AF088C028F089C029F08AC02AF08BC0FC
:101118002BF0000E2C6E000E2D6E200E2E6E410E42
:101128002F6EAFEC0FF028C088F029C089F02AC0D4
:101138008AF02BC08BF000016007D8A061077F4BB5
:10114800802B6D517F5D8051800A5C6E6E51800AE4
:101158005C58D8B0B2EF08F0B4EF08F0C2EF08F06E
:1011680087BFC0EF08F0875109E14B0E865DD8A014
:10117800C0EF08F0C2EF08F0C0EF07F0000E806F74
:101188004F0E7F6F000E7F25D96E010E8021DA6E1B
:10119800DF6A000E5C6E010E5D6E86515C5E8751E3
:1011A8005D5A7F515C24016E80515D20026E000EF5
:1011B800036E010E046E86C005F087C006F045EC8C
:1011C80019F0000186517F5D866F87518059876FBE
:1011D8008151D8A4F2EF08F0F5EF08F0010EF6EF10
:1011E80008F0000E7F6F806BCDA3FDEF08F0FFEFD6
:1011F80008F02DEF09F00FEF09F08607D8A0870750
:10120800000E8625D96E010E8721DA6E300EDF6E4C
:101218007107D8A0720771517F5D8051800A5C6E9A
:101228007251800A5C58D8B01CEF09F01EEF09F023
:101238002DEF09F086517F5D8051800A5C6E8751E1
:10124800800A5C58D8A02BEF09F02DEF09F001EFC8
:1012580009F08151D8B433EF09F035EF09F040EFC8
:1012680009F08607D8A08707000E8625D96E010EDB
:101278008721DA6E81C0DFFF7F51715F8051725B19
:1012880055C011F056C012F0000E8625136E010EDF
:101298008721146E71C015F072C016F056EC18F064
:1012A80012000450800B0D6E045004240F6E03AE20
:1012B80060EF09F062EF09F063EF09F00F800F505B
:1012C800D8B469EF09F06BEF09F080EF09F00F2847
:1012D800D8A471EF09F073EF09F07BEF09F0000E65
:1012E800016E000E026E000E036E000E046E038E79
:1012F800000E046E88EF09F0000E016E000E026EFB
:10130800000E036E000E046E0850800B0E6E0D501A
:101318000E18D8B492EF09F094EF09F095EF09F0A0
:101328000D8C085008240E6E07AE9DEF09F09FEF54
:1013380009F0A0EF09F00E800E50D8B4A6EF09F01E
:10134800A8EF09F0BDEF09F00E28D8A4AEEF09F018
:10135800B0EF09F0B8EF09F0000E056E000E066E4A
:10136800000E076E000E086E078E000E086EC5EFA1
:1013780009F0000E056E000E066E000E076E000ED8
:10138800086E0F500E5CD8B0CCEF09F0CEEF09F024
:10139800F5EF09F00DACD3EF09F0D5EF09F0D7EF71
:1013A80009F0800E0D1A0FC010F00EC00FF010C01B
:1013B8000EF001C010F005C001F010C005F002C029
:1013C80010F006C002F010C006F003C010F007C00D
:1013D80003F010C007F004C010F008C004F010C0FB
:1013E80008F0000E106E0F500EC009F00A6A095E70
:1013F800000E0A5A0ABE0AEF0AF00A5009E11A0E4C
:10140800095CD8A00AEF0AF00CEF0AF043EF0AF0E3
:101418000150021003100410D8A415EF0AF018EFB9
:101428000AF0010E19EF0AF0000E106E000E016EA0
:10143800000E026E000E036E000E046E0EC00FF05A
:101448004CEF0AF010A02BEF0AF02DEF0AF033EF63
:101458000AF0D89010300109106E35EF0AF0D890D4
:10146800103201A03AEF0AF03CEF0AF03DEF0AF023
:10147800108E043404320332023201320F2A0E5025
:101488000F5CD8A04AEF0AF04CEF0AF026EF0AF0FA
:101498000DBC51EF0AF053EF0AF093EF0AF00F502A
:1014A800D8A459EF0AF05BEF0AF065EF0AF0000ED6
:1014B800016E000E026E000E036E000E046EB4EF95
:1014C8000BF005500126065002220750032208504F
:1014D800042204A072EF0AF074EF0AF020EF0BF078
:1014E80010A079EF0AF07BEF0AF081EF0AF0D890AC
:1014F80010300109106E83EF0AF0D890103201A065
:1015080088EF0AF08AEF0AF08BEF0AF0108E0434A5
:1015180004320332023201320F2A20EF0BF0055059
:10152800015C06500258075003580450800A096E9F
:101538000850800A0958D8B0A4EF0AF0A6EF0AF0BC
:10154800D1EF0AF00150055C096E025006580A6E88
:10155800035007580B6E045008580C6EFF0E0924F0
:10156800016EFF0E0A20026EFF0E0B20036EFF0EA7
:101578000C20046E800E0D1A106C1050D8A4C7EF02
:101588000AF0C9EF0AF0D9EF0AF0010E0126000EA1
:10159800022203220422D9EF0AF00550015E065008
:1015A800025A0750035A0850045A015002100310F7
:1015B8000410D8A4E2EF0AF0E4EF0AF019EF0BF0F8
:1015C8001050D8A4EAEF0AF0ECEF0AF019EF0BF08C
:1015D800000E016E000E026E000E036E000E046E09
:1015E800B4EF0BF0D890013602360336043610AE4D
:1015F80000EF0BF002EF0BF003EF0BF0018010A0EF
:1016080008EF0BF00AEF0BF00EEF0BF0D880103656
:1016180010EF0BF0D89010360F50D8B416EF0BF02F
:1016280018EF0BF019EF0BF00F0603AE1EEF0BF0DF
:1016380020EF0BF0F6EF0AF0000E0E6E10AE27EF5B
:101648000BF029EF0BF041EF0BF010C009F07F0E03
:101658000916D8B432EF0BF034EF0BF038EF0BF07B
:10166800010E0E6E41EF0BF001A03DEF0BF03FEFC6
:101678000BF041EF0BF034EF0BF00E50D8B447EFFE
:101688000BF049EF0BF074EF0BF0010E0126000E82
:1016980002220322042204A054EF0BF056EF0BF0B1
:1016A80074EF0BF001C009F002C00AF003C00BF0A0
:1016B80004C00CF00C340C320B320A32093209C067
:1016C80001F00AC002F00BC003F00CC004F00F28B0
:1016D800D8B471EF0BF073EF0BF074EF0BF00F2A27
:1016E8000F28D8B47AEF0BF07CEF0BF084EF0BF0F7
:1016F8000F50D8A482EF0BF084EF0BF096EF0BF0AD
:10170800000E016E000E026E000E036E000E046ED7
:101718000F50D8A492EF0BF094EF0BF096EF0BF06C
:10172800000E0D6E0FA09BEF0BF09DEF0BF0A0EFDE
:101738000BF0038EA1EF0BF0039ED8900F30046ED0
:101748000DAEA9EF0BF0ABEF0BF0ACEF0BF0048E86
:1017580001C001F002C002F003C003F004C004F0AD
:1017680012001250800B1B6E12501224216E11AE03
:10177800C0EF0BF0C2EF0BF0C3EF0BF0218021504C
:10178800D8B4C9EF0BF0CBEF0BF0DEEF0BF021284C
:10179800D8A4D1EF0BF0D3EF0BF0DBEF0BF0000E7A
:1017A8000F6E000E106E000E116E000E126E118E6E
:1017B800E6EF0BF0000E0F6E000E106E000E116EAD
:1017C800000E126E1650800B1B1A16501624206E2F
:1017D80015AEF1EF0BF0F3EF0BF0F4EF0BF0208008
:1017E8002050D8B4FAEF0BF0FCEF0BF00FEF0CF031
:1017F8002028D8A402EF0CF004EF0CF00CEF0CF04A
:10180800000E136E000E146E000E156E000E166E8E
:10181800158E17EF0CF0000E136E000E146E000EEE
:10182800156E000E166E2050D8B41DEF0CF01FEF89
:101838000CF027EF0CF02150D8A425EF0CF027EF7F
:101848000CF031EF0CF0000E0F6E000E106E000E53
:10185800116E000E126EC9EF0DF015500F02F3CF86
:1018680026F0F4CF27F026501C6E1D6A1E6A1F6AE8
:101878002750226E236A246A256A14501002F3CF77
:1018880026F0F4CF27F026501C26000E1D221E221B
:101898001F2227502226000E2322242225221350FD
:1018A8001102F3CF26F0F4CF27F026501C26000EA5
:1018B8001D221E221F2227502226000E2322242208
:1018C80025221EC01FF01DC01EF01CC01DF01C6A82
:1018D80013501002F3CF26F0F4CF27F026501C2621
:1018E80027501D22000E1E22000E1F2214500F0228
:1018F800F3CF26F0F4CF27F026501C2627501D22C0
:10190800000E1E22000E1F221EC01FF01DC01EF05A
:101918001CC01DF01C6A13500F02F3CF26F0F4CF41
:1019280027F026501C2627501D22000E1E22000ECE
:101938001F2215501002F3CF26F0F4CF27F02650BF
:10194800222627502322000E2422000E252214507E
:101958001102F3CF26F0F4CF27F026502226275085
:101968002322000E2422000E252215501102F3CF47
:1019780026F0F4CF27F02650176E2750186E196AF4
:101988001A6A19C01AF018C019F017C018F0176AA7
:101998001750222618502322195024221A50252283
:1019A8001CC017F01DC018F01EC019F01FC01AF097
:1019B800190EE4EF0CF0D8901A3219321832173297
:1019C800E82EDFEF0CF0175022261850232219506A
:1019D80024221A5025221EC01FF01DC01EF01CC054
:1019E8001DF01C6A205021C017F0186A1726000E37
:1019F8001822820E1724266EFF0E1820276E1AEF63
:101A08000DF0D89022362336243625361FAE0FEF38
:101A18000DF011EF0DF012EF0DF02280D8901C366A
:101A28001D361E361F362606D8A0270624AE1FEF01
:101A38000DF021EF0DF005EF0DF0000E206E1FAE3A
:101A480028EF0DF02AEF0DF04EEF0DF0FF0E1C14ED
:101A5800176EFF0E1D14186EFF0E1E14196E7F0EE2
:101A68001F141A6E1750181019101A10D8B43FEF17
:101A78000DF041EF0DF045EF0DF0010E206E4EEF29
:101A88000DF022A04AEF0DF04CEF0DF04EEF0DF0E7
:101A980041EF0DF02050D8B454EF0DF056EF0DF093
:101AA8007AEF0DF0010E2226000E23222422252291
:101AB80025A061EF0DF063EF0DF07AEF0DF022C075
:101AC80017F023C018F024C019F025C01AF01A34F2
:101AD8001A3219321832173217C022F018C023F000
:101AE80019C024F01AC025F0264A272A27BE85EFF8
:101AF8000DF0275008E12628D8A085EF0DF087EFD4
:101B08000DF091EF0DF0000E226E000E236E800E88
:101B1800246E7F0E256EBFEF0DF027BE9EEF0DF0F1
:101B2800275006E12604D8B09CEF0DF09EEF0DF08B
:101B3800AAEF0DF0000E226E000E236E000E246E2A
:101B4800000E256E000E1B6EBFEF0DF026C021F0B3
:101B5800FF0E2216FF0E23167F0E2416000E2516E2
:101B680021A0B9EF0DF0BBEF0DF0BCEF0DF0248E06
:101B7800D8902130256E1B50251222C00FF023C0AB
:101B880010F024C011F025C012F012005DEC1AF01C
:101B9800D6EC17F065EC1AF0010E046E010E50EC4D
:101BA80016F01C0E056E080E066E17EC18F0010EE6
:101BB800046E020E50EC16F0280E056E080E066E26
:101BC80017EC18F0080E0001BA6F9D0EB96F050EDC
:101BD800E82EFED7B92FFCD7BA2FFAD700D065EC7C
:101BE8001AF0010E046E010E50EC16F0330E056E5D
:101BF800080E066E17EC18F0080E0001BA6F9D0E5D
:101C0800B96F050EE82EFED7B92FFCD7BA2FFAD731
:101C180000D065EC1AF081B014EF0EF016EF0EF05C
:101C280099EF0EF052EC1AF0C282C2B21EEF0EF01B
:101C380020EF0EF019EF0EF0C4500001BA6FB96B27
:101C4800C350B925CB6F000EBA21CC6F000E136EAE
:101C5800000E146EA00E156E400E166ECBC001F06D
:101C6800CCC002F0000E02BEFF0E036E046E010E21
:101C7800F2EC13F001C00FF002C010F003C011F035
:101C880004C012F0B5EC0BF00FC028F010C029F01A
:101C980011C02AF012C02BF0000E2C6EC00E2D6E53
:101CA8007F0E2E6E440E2F6EAFEC0FF028C0C3F0DF
:101CB80029C0C4F02AC0C5F02BC0C6F0010E046EBE
:101CC800010E50EC16F00F0E056E080E066E17EC9E
:101CD80018F0010E046E020E50EC16F0CE0E000144
:101CE800A36F000EA46F010EA56F080EA66FC3C0E8
:101CF800A7F0C4C0A8F0C5C0A9F0C6C0AAF01DECE2
:101D080019F0CE0E056E000E066E17EC18F0020ED6
:101D18000001BA6F860EB96F990EE82EFED7B92F5B
:101D2800FCD7BA2FFAD716EF0EF081B29EEF0EF05D
:101D3800A0EF0EF023EF0FF047EC1AF0C282C2B208
:101D4800A8EF0EF0AAEF0EF0A3EF0EF0C4500001BA
:101D5800BA6FB96BC350B925CB6F000EBA21CC6FDF
:101D6800000E136E000E146EA00E156E400E166E49
:101D7800CBC001F0CCC002F0000E02BEFF0E036E15
:101D8800046E010EF2EC13F001C00FF002C010F067
:101D980003C011F004C012F0B5EC0BF00FC028F02E
:101DA80010C029F011C02AF012C02BF0000E2C6EC2
:101DB800C00E2D6E7F0E2E6E440E2F6EAFEC0FF000
:101DC80028C0C3F029C0C4F02AC0C5F02BC0C6F093
:101DD800010E046E010E50EC16F00F0E056E080E83
:101DE800066E17EC18F0010E046E020E50EC16F099
:101DF800CE0E0001A36F000EA46F010EA56F080E92
:101E0800A66FC3C0A7F0C4C0A8F0C5C0A9F0C6C0DB
:101E1800AAF01DEC19F0CE0E056E000E066E17EC3A
:101E280018F0020E0001BA6F860EB96F990EE82EEF
:101E3800FED7B92FFCD7BA2FFAD7A0EF0EF081B48E
:101E480028EF0FF02AEF0FF0ADEF0FF03CEC1AF08F
:101E5800C282C2B232EF0FF034EF0FF02DEF0FF065
:101E6800C4500001BA6FB96BC350B925CB6F000ECF
:101E7800BA21CC6F000E136E000E146EA00E156EF4
:101E8800400E166ECBC001F0CCC002F0000E02BEB0
:101E9800FF0E036E046E010EF2EC13F001C00FF09A
:101EA80002C010F003C011F004C012F0B5EC0BF042
:101EB8000FC028F010C029F011C02AF012C02BF072
:101EC800000E2C6EC00E2D6E7F0E2E6E440E2F6EE1
:101ED800AFEC0FF028C0C3F029C0C4F02AC0C5F089
:101EE8002BC0C6F0010E046E010E50EC16F00F0E5A
:101EF800056E080E066E17EC18F0010E046E020E41
:101F080050EC16F0CE0E0001A36F000EA46F010E68
:101F1800A56F080EA66FC3C0A7F0C4C0A8F0C5C0BF
:101F2800A9F0C6C0AAF01DEC19F0CE0E056E000E81
:101F3800066E17EC18F0020E0001BA6F860EB96F24
:101F4800990EE82EFED7B92FFCD7BA2FFAD72AEF69
:101F58000FF000EF00F02B50800B386E2B502B2425
:101F68003F6E2AAEBAEF0FF0BCEF0FF0BDEF0FF0E7
:101F78003F803F50D8B4C3EF0FF0C5EF0FF0DAEF52
:101F88000FF03F28D8A4CBEF0FF0CDEF0FF0D5EF2F
:101F98000FF0000E286E000E296E000E2A6E000E3D
:101FA8002B6E2A8E000E2B6EE2EF0FF0000E286EBD
:101FB800000E296E000E2A6E000E2B6E2F50800B1D
:101FC800381A2F502F24406E2EAEEDEF0FF0EFEFA2
:101FD8000FF0F0EF0FF040804050D8B4F6EF0FF05C
:101FE800F8EF0FF00DEF10F04028D8A4FEEF0FF037
:101FF80000EF10F008EF10F0000E2C6E000E2D6EA2
:10200800000E2E6E000E2F6E2E8E000E2F6E15EF08
:1020180010F0000E2C6E000E2D6E000E2E6E000EAF
:102028002F6E2C502D102E102F10D8A41EEF10F04C
:1020380020EF10F038EF10F0000E286E000E296E19
:10204800000E2A6E000E2B6E800E2A127F0E2B12A7
:1020580038502B1228C028F029C029F02AC02AF0AD
:102068002BC02BF07BEF11F03F50D8A43EEF10F0BF
:1020780040EF10F04AEF10F0000E286E000E296EA7
:10208800000E2A6E000E2B6E7BEF11F040503FC001
:1020980030F0316A305E000E315A7F0E3024396ECE
:1020A800000E31203A6E28C034F029C035F02AC01D
:1020B80036F02BC037F0000E286E000E296E000E89
:1020C8002A6E000E2B6E000E3B6E000E3C6E000E4C
:1020D8003D6E000E3E6E000E406EABEF10F04050AD
:1020E800D8B479EF10F07BEF10F092EF10F0D890A1
:1020F8003436353636363736D890283629362A36A5
:102108002B363EAE8AEF10F08CEF10F08DEF10F00A
:102118002880D8903B363C363D363E362C50345CD1
:102128002D5035582E5036582F503758D8A09FEF7D
:1021380010F0A1EF10F0AAEF10F03E8C2C50345E96
:102148002D50355A2E50365A2F50375A402A190ECC
:102158004064B1EF10F0B3EF10F073EF10F03450AB
:10216800351036103710D8B4BCEF10F0BEEF10F0B1
:10217800D6EF10F03B80D6EF10F0D89028362936ED
:102188002A362B363EAECBEF10F0CDEF10F0CEEF67
:1021980010F02880D8903B363C363D363E3639061E
:1021A800D8A03A062AAEDBEF10F0DDEF10F0C1EF51
:1021B80010F0000E406E3EAEE4EF10F0E6EF10F0C7
:1021C8000AEF11F0FF0E3B14306EFF0E3C14316E17
:1021D800FF0E3D14326E7F0E3E14336E30503110B8
:1021E80032103310D8B4FBEF10F0FDEF10F001EF10
:1021F80011F0010E406E0AEF11F028A006EF11F061
:1022080008EF11F00AEF11F0FDEF10F04050D8B4CC
:1022180010EF11F012EF11F036EF11F0010E282631
:10222800000E29222A222B222BA01DEF11F01FEFCE
:1022380011F036EF11F028C030F029C031F02AC073
:1022480032F02BC033F03334333232323132303261
:1022580030C028F031C029F032C02AF033C02BF04A
:10226800394A3A2A3ABE41EF11F03A5008E1392882
:10227800D8A041EF11F043EF11F04EEF11F0000E2E
:102288003A6E3968000E286E000E296E000E2A6E0E
:10229800000E2B6E3ABE5BEF11F03A5006E139049E
:1022A800D8B059EF11F05BEF11F069EF11F0000EA3
:1022B8003A6E000E396E000E286E000E296E000E62
:1022C8002A6E000E2B6E000E386E39C03FF03FA00C
:1022D80070EF11F072EF11F075EF11F02A8E76EFB2
:1022E80011F02A9ED8903F302B6E2CEF10F0120080
:1022F8008EC0D9FF8FC0DAFFDECFF6FFDDCFF7FF44
:102308000800F550250AD8A48CEF11F08EEF11F0D3
:10231800D4EF12F08EC0D9FF8FC0DAFFDE2A000E8C
:10232800DD22000E0001C86F000EC76FC7C0CDF0D8
:10233800C969CA69000E976F000E966FCEEF11F04B
:10234800CD838EC0D9FF8FC0DAFFDE2A000EDD22D2
:10235800CEEF11F0000E976F010E966FCEEF11F0D1
:102368008EC0D9FF8FC0DAFFDECFF6FFDDCFF7FFD3
:102378000800F5505E6E5F6A5F50000AD8B4C7EF78
:1023880011F0AEEF11F05E50300AD8B4A4EF11F09E
:10239800AEEF11F096519711D8B4D5EF11F0D7EFF1
:1023A80011F0B4EF11F08EC0D9FF8FC0DAFFDECF85
:1023B800F6FFDDCFF7FF0800F5502E0AD8A4E7EFA7
:1023C80011F0E9EF11F0FEEF11F08EC0D9FF8FC0C8
:1023D800DAFFDE2A000EDD228EC007F08FC008F07B
:1023E80090C009F091C00AF01EEC17F007C0C9F0C0
:1023F80008C0CAF08EC0D9FF8FC0DAFFDECF99F0CF
:10240800DDCF9AF099C0F6FF9AC0F7FF0800F5CF24
:1024180098F01BEF12F0994B9A2B35EF12F06C0ED7
:10242800986F35EF12F0000E986F35EF12F000013B
:1024380098515E6E5F6A5F50000AD8B426EF12F0BA
:1024480017EF12F05E504C0AD8B40FEF12F02A0AB8
:10245800D8B413EF12F00A0AD8B40FEF12F017EF3E
:1024680012F099C0F6FF9AC0F7FF0800F550660A07
:10247800D8A441EF12F043EF12F0CBEF12F079EF4E
:1024880012F090C0D9FF91C0DAFFDFCF5EF0040EE2
:10249800DE26DFCF5FF0000EDD225EC0D9FF5FC011
:1024A800DAFFDECF92F0DECF93F0DECF94F0DECF0E
:1024B80095F08EEF12F090C0D9FF91C0DAFFDFCF10
:1024C8005EF0040EDE26DFCF5FF0000EDD225EC078
:1024D800D9FF5FC0DAFFDECF92F0DECF93F0DECF18
:1024E80094F0DECF95F08EEF12F098515E6E5F6A31
:1024F8005F50000AD8B483EF12F08EEF12F05E50EE
:102508004C0AD8B45FEF12F0200AD8B445EF12F0A5
:102518008EEF12F0010E99255E6E000E9A215F6E05
:102528008EC0D9FF8FC0DAFF5EC0DEFF5FC0DDFF5F
:10253800B5EF12F08CC055F08DC056F092C057F030
:1025480093C058F094C059F095C05AF099C0F6FF5E
:102558009AC0F7FF0800F5CF5BF024EC04F0E8EF31
:1025680012F099C0F6FF9AC0F7FF0800F5505E6EAA
:102578005F6A5F50000AD8B4C4EF12F0CBEF12F0D4
:102588005E50660AD8B49EEF12F0CBEF12F08EC000
:10259800D9FF8FC0DAFFDE2A000EDD22E8EF12F045
:1025A8008EC0D9FF8FC0DAFFDECFF6FFDDCFF7FF91
:1025B8000800F550016E026A8CC003F08DC004F06B
:1025C800B9EC16F0CBEF12F01200BBC051F0BCC052
:1025D80052F0BDC053F0BEC054F041C051F042C0EB
:1025E80052F043C053F044C054F0810E456EFF0EC4
:1025F800466E51C047F052C048F053C049F054C02D
:102608004AF0180E0DEF13F0D8904A32493248328A
:102618004732E82E08EF13F0475045244F6E000E5E
:102628004620506E50BE22EF13F0505009E1170EAD
:102638004F5CD8A022EF13F024EF13F02EEF13F025
:1026480041C041F042C042F043C043F044C044F0AE
:10265800F1EF13F050BE33EF13F035EF13F0A5EFA1
:1026680013F04FC045F0FF0E466EFF0E476E7F0E0B
:10267800486E000E496E456644EF13F04CEF13F0B8
:1026880049344932483247324632452E3FEF13F03B
:1026980046C04BF047C04CF048C04DF049C04EF022
:1026A8004B505114456E4C505214466E4D505314B5
:1026B800476E4E505414486E455046104710481007
:1026C800D8A469EF13F06BEF13F06DEF13F024EF5C
:1026D80013F051C045F052C046F053C047F054C003
:1026E80048F0200E7DEF13F0D8904832473246323A
:1026F8004532E82E78EF13F0455046104710481041
:10270800D8B489EF13F08BEF13F093EF13F04B501D
:1027180051264C5052224D5053224E5054224B1C9D
:10272800456E4C1C466E4D1C476E4E1C486E4550FF
:102738005116465052164750531648505416E9EF52
:1027480013F051C045F052C046F053C047F054C092
:1027580048F0200EB5EF13F0D89048324732463291
:102768004532E82EB0EF13F0455046104710481098
:10277800D8A4C1EF13F0C3EF13F0CDEF13F0000EA0
:10278800516E000E526E000E536E000E546EE9EF3D
:1027980013F0D8905134456E5234466E5334476E18
:1027A8005434486E4550461047104810D8B4DFEFEF
:1027B80013F0E1EF13F0E9EF13F0000E516E000E85
:1027C800526E800E536EBF0E546E51C041F052C00F
:1027D80042F053C043F054C044F01200096E09504F
:1027E800D8B4F9EF13F0FBEF13F01DEF14F004BEAB
:1027F80002EF14F000EF14F01DEF14F001C005F023
:1028080002C006F003C007F004C008F0051E061E4B
:10281800071E081E052A000E06220722082205C0E8
:102828000BF006C00CF007C00DF008C00EF025EF45
:1028380014F001C00BF002C00CF003C00DF004C08E
:102848000EF00150021003100410D8A42EEF14F05B
:1028580030EF14F03AEF14F0000E016E000E026E25
:10286800000E036E000E046ECBEF14F0960E0A6E87
:1028780044EF14F00A2AD8900E320D320C320B3283
:10288800000E0B14056E000E0C14066E000E0D14CF
:10289800076EFE0E0E14086E05500610071008107D
:1028A800D8A459EF14F05BEF14F03EEF14F069EF81
:1028B80014F00A2A010E0B26000E0C220D220E22FD
:1028C800D8900E320D320C320B32000E0B14056EFE
:1028D800000E0C14066E000E0D14076EFF0E0E147B
:1028E800086E0550061007100810D8A47EEF14F0E3
:1028F80080EF14F05DEF14F088EF14F00A06D8901A
:102908000B360C360D360E360DBE8DEF14F08FEFEC
:1029180014F097EF14F0020E0A6095EF14F097EF99
:1029280014F082EF14F00AB09CEF14F09EEF14F04C
:102938009FEF14F00D9ED8900A320AC005F0066A7F
:10294800076A086A05C008F0076A066A056A05503A
:102958000B1206500C1207500D1208500E12095097
:10296800D8B4B9EF14F0BBEF14F0C3EF14F004BE01
:10297800C2EF14F0C0EF14F0C3EF14F00E8E0BC0CA
:1029880001F00CC002F00DC003F00EC004F01200FC
:10299800033404340A6E0A50D8A4D5EF14F0D7EFE4
:1029A80014F0E1EF14F0000E016E000E026E000E3E
:1029B800036E000E046E4EEF15F001C005F002C064
:1029C80006F003C007F004C008F0200EF1EF14F081
:1029D800D8900832073206320532E82EECEF14F0B0
:1029E8000550096E038EFF0E0116FF0E0216FF0E2C
:1029F8000316000E0416960E0A5E0ABE08EF15F0BE
:102A080006EF15F01EEF15F00A50800A970FD8B0A0
:102A180010EF15F012EF15F014EF15F0D7EF14F0D2
:102A2800D89004320332023201320A3E14EF15F014
:102A380036EF15F01F0E0A6424EF15F026EF15F097
:102A48002EEF15F0D7EF14F0D89001360236033682
:102A580004360A060A50D8A434EF15F036EF15F0FC
:102A680028EF15F00950D8B43CEF15F03EEF15F0FB
:102A780046EF15F0041E031E021E016C000E022212
:102A88000322042201C001F002C002F003C003F0D7
:102A980004C004F01200000E2814306E000E291431
:102AA800316E800E2A14326E7F0E2B14336E305026
:102AB800311032103310D8A464EF15F066EF15F01A
:102AC8006EEF15F0000E286E000E296E000E2A6EAD
:102AD800000E2B6E000E2C14306E000E2D14316E6D
:102AE800800E2E14326E7F0E2F14336E305031103C
:102AF80032103310D8A483EF15F085EF15F08DEF61
:102B080015F0000E2C6E000E2D6E000E2E6E000EAF
:102B18002F6E2BAE92EF15F094EF15F09DEF15F098
:102B2800286C291ED8B0292A2A1ED8B02A2A800E35
:102B38002B562FAEA2EF15F0A4EF15F0ADEF15F060
:102B48002C6C2D1ED8B02D2A2E1ED8B02E2A800E01
:102B58002F56000E281A000E291A000E2A1A800E67
:102B68002B1A000E2C1A000E2D1A000E2E1A800E8B
:102B78002F1A2C50285C2D5029582E502A582F5087
:102B88002B58D8B0CAEF15F0CCEF15F0CFEF15F0F1
:102B9800D890D0EF15F0D8801200BFC00BF0C0C09D
:102BA8000CF0C1C00DF0C2C00EF001C00BF002C0A5
:102BB8000CF003C00DF004C00EF00BC005F00CC003
:102BC80006F00DC007F00EC008F0180EF1EF15F072
:102BD800D8900832073206320532E82EECEF15F0AD
:102BE8000550096E0A6A09500A10D8A4FEEF15F0BC
:102BF80000EF16F020EF16F0D8900B34056E0C3469
:102C0800066E0D34076E0E34086E05500610071058
:102C18000810D8A412EF16F014EF16F01AEF16F0F9
:102C2800000E026E020E016E4FEF16F0000E026EDD
:102C3800030E016E4FEF16F009280A10D8A427EFEB
:102C480016F029EF16F04BEF16F00BC005F00CC08C
:102C580006F00DC007F00EC008F0090ED890053632
:102C6800063607360836E82E32EF16F005500610FD
:102C780007100810D8B443EF16F046EF16F0010E0F
:102C880047EF16F0000E016E026A4FEF16F0000EC5
:102C9800026E040E016E1200056E0504D8A457EFEB
:102CA80016F059EF16F06AEF16F004507F0F086E11
:102CB80008380F0B066E08500F0B076E06502CECE9
:102CC8001AF007502CEC1AF0B8EF16F0020E05189F
:102CD800D8A471EF16F073EF16F084EF16F00450D5
:102CE800BF0F086E08380F0B066E08500F0B076EE3
:102CF80006502CEC1AF007502CEC1AF0B8EF16F02E
:102D0800030E0518D8A48BEF16F08DEF16F09EEF82
:102D180016F00450930F086E08380F0B066E085013
:102D28000F0B076E06502CEC1AF007502CEC1AF01B
:102D3800B8EF16F0040E0518D8A4A5EF16F0A7EF03
:102D480016F0B8EF16F00450D30F086E08380F0BC2
:102D5800066E08500F0B076E06502CEC1AF0075041
:102D68002CEC1AF0B8EF16F0120003500410D8B487
:102D7800C0EF16F0C2EF16F0CBEF16F003500410B8
:102D8800D8A4C9EF16F0CBEF16F0D0EF16F001502B
:102D98006CEC1AF01DEF17F020EE0AF00350D9265C
:102DA8000450DA22DE50DE10D8B4DDEF16F0DFEF83
:102DB80016F0FAEF16F020EE0AF00350D926045068
:102DC800DA2210EE03F00350E1260450E222DE502E
:102DD800E65CE650800A096EDE50800A0958D8B0D1
:102DE800F8EF16F0FAEF16F01DEF17F020EE03F0EB
:102DF8000350D9260450DA22DECF05F0DDCF06F0E5
:102E080003C0D9FF04C0DAFFDECF07F0DDCF08F03A
:102E180005500724D96E06500820DA6E01C0DFFF7E
:102E280020EE03F00350D9260450DA22DE2A000EE1
:102E3800DD221200000E0F6E000E0E6E07C0D9FFC5
:102E480008C0DAFFDECFF6FFDDCFF7FF0800F55048
:102E58002A0AD8A432EF17F034EF17F068EF17F00A
:102E680007C0D9FF08C0DAFFDE2A000EDD2209C03C
:102E7800D9FF0AC0DAFFDFCF0BF0020EDE26DFCF64
:102E88000CF0000EDD220BC0D9FF0CC0DAFFDECF3C
:102E98000EF0DDCF0FF07CEF17F00EC001F00FC081
:102EA80002F0000E046E0A0E036E08EC1AF00D50C4
:102EB80001240E6E000E02200F6E07C0D9FF08C055
:102EC800DAFFDE2A000EDD2207C0D9FF08C0DAFFCC
:102ED800DECFF6FFDDCFF7FF0800F550D00F0D6EFF
:102EE800090E0D647AEF17F07CEF17F051EF17F029
:102EF8000EC007F00FC008F01200000E0114096E92
:102F0800000E02140A6E800E03140B6E7F0E04145A
:102F18000C6E09500A100B100C10D8A496EF17F07D
:102F280098EF17F0A0EF17F0000E016E000E026E7A
:102F3800000E036E000E046E000E0514096E000EDE
:102F480006140A6E800E07140B6E7F0E08140C6EA2
:102F580009500A100B100C10D8A4B5EF17F0B7EFF2
:102F680017F0BFEF17F0000E056E000E066E000E8C
:102F7800076E000E086E055001180FE10650021882
:102F88000CE10750031809E108500418D8B4CFEF32
:102F980017F0D1EF17F0D4EF17F0D890D5EF17F05E
:102FA800D8801200959495969598959A959C959E9B
:102FB800000EC6EC18F04E0E046EEB0EE82EFED78F
:102FC800042EFCD700F0030E2CEC1AF0140E046E3D
:102FD8007A0EE82EFED7042EFCD7030E2CEC1AF03E
:102FE8002B0E046EDA0EE82EFED7042EFCD700D086
:102FF800030E2CEC1AF0020E2CEC1AF0020E2CEC3C
:103008001AF0080E2CEC1AF0000E2CEC1AF00C0E2C
:103018002CEC1AF0000E2CEC1AF0060E2CEC1AF020
:1030280065EC1AF01200000E0A6E000E096E37EFFA
:1030380018F009500524076E0A500620086E07C0CC
:10304800F6FF08C0F7FFF86A070EF76403D0080018
:10305800F55005D0F6CFE1FFF7CFE2FFE750EEECF1
:1030680019F0094A0A2A09500524076E0A50062051
:10307800086E07C0F6FF08C0F7FFF86A070EF76486
:1030880003D00800F55005D0F6CFE1FFF7CFE2FFF7
:10309800E7500009D8A453EF18F055EF18F01DEFCA
:1030A80018F0120016BE5BEF18F05DEF18F063EF32
:1030B80018F015C01AF016C01BF067EF18F0000ED4
:1030C8001B6E000E1A6E000E196E000E186E79EF48
:1030D80018F0000E026E200E016E11C003F012C02F
:1030E80004F0B9EC16F0184A192A1A50185C19504D
:1030F800800A176E1B50800A1758D8A086EF18F060
:1031080088EF18F06DEF18F013C00AF014C00BF038
:1031180011C00CF012C00DF090EC19F0120004BEB2
:10312800A2EF18F004500310021006E10104D8B011
:10313800A0EF18F0A2EF18F0BDEF18F001C005F0ED
:1031480002C006F003C007F004C008F0051E061E02
:10315800071E081E052A000E06220722082205C09F
:1031680001F006C002F007C003F008C004F0C5EF84
:1031780018F001C001F002C002F003C003F004C05F
:1031880004F01200016E01A0CCEF18F0CEEF18F099
:10319800D1EF18F08C88D2EF18F08C9801A2D7EFF5
:1031A80018F0D9EF18F0DCEF18F08C8ADDEF18F082
:1031B8008C9A01A4E2EF18F0E4EF18F0E7EF18F0AA
:1031C8008C8CE8EF18F08C9C01A6EDEF18F0EFEF6F
:1031D80018F0F2EF18F08C8EF3EF18F08C9E1200B6
:1031E8009DC0A1F09EC0A2F009EF19F09BC08CF021
:1031F8009CC08DF0A10E00018E6F000E8F6F9FC0D6
:1032080090F0A0C091F07CEC11F0A1C0F6FFA2C034
:10321800F7FF0800F5500009D8A415EF19F017EFCB
:1032280019F0FAEF18F0000E00019C6F000E9B6F6A
:103238001200A70E0001AB6F000EAC6FA3C0ADF07B
:10324800A4C0AEF0000EB16F000EB06F000EB86FE4
:10325800000EB76FAD0E9B6F000E9C6FA5C09DF062
:10326800A6C09EF0AB0E9F6F000EA06FF4EC18F096
:103278000001B051A325D96EB151A421DA6EDF6ADD
:10328800120003C009F004C00AF001C007F002C030
:1032980008F05FEF19F009C0D9FF0AC0DAFFDF5064
:1032A8000B6E094A0A2A07C0D9FF08C0DAFF0BC00B
:1032B800DFFF074A082A0506D8A00606052806E102
:1032C8000628D8A46AEF19F06CEF19F04FEF19F03F
:1032D8001200000E2C1A000E2D1A000E2E1A800E47
:1032E8002F1A28C001F029C002F02AC003F02BC011
:1032F80004F02CC005F02DC006F02EC007F02FC03A
:1033080008F055EC09F001C028F002C029F003C00C
:103318002AF004C02BF01200000E106E000E0F6E83
:10332800A1EF19F00EC001F0026A0CC003F00DC045
:1033380004F0B9EC16F00F4A102A0F500A24D96E7F
:1033480010500B20DA6EDF500E6E0E50D8A4AFEF7F
:1033580019F0B1EF19F096EF19F0120003C005F05B
:1033680004C006F001C007F002C008F005C0F6FF6F
:1033780006C0F7FF054A062A07C0D9FF08C0DAFFCA
:10338800074A082A0800F5CFDFFFDF50D8A4CFEF9F
:1033980019F0D1EF19F0BAEF19F01200015002102C
:1033A80003100410D8B4DBEF19F0DDEF19F0E5EFE6
:1033B80019F0000E011A000E021A000E031A800EF0
:1033C800041A01C001F002C002F003C003F004C0F7
:1033D80004F01200046E04500F0B026E0450F00B40
:1033E800036E8C8403380F0BC6EC18F08C86280EFD
:1033F800E82EFED78C960250C6EC18F08C86280E64
:10340800E82EFED78C96120001500302F3CF05F088
:10341800F4CF06F001500402F350062602500302CE
:10342800F350062605C001F006C002F0120001EEB6
:1034380000F0500EEE6AE806FDE100EEBBF0270E44
:10344800EE6AE806FDE1000EF86E0001CAEF0DF025
:10345800036E8C940350C6EC18F08C86100E026E26
:10346800940EE82EFED7022EFCD700D08C961200C0
:103478000F015B859284080EC26E000EC16E9D0E10
:10348800C06EC28012000F015B839282040EC26E6E
:10349800000EC16E9D0EC06EC28012000F015B81CE
:1034A8009280000EC26E000EC16E9D0EC06EC2806C
:1034B8001200000E8A6E000E0F015C6F9368F19E79
:1034C8001200000E2CEC1AF0010E2CEC1AF012006F
:0234D8001200E0
:020000040030CA
:0E0000000003583CFFD180FF0FC00FE00F40FF
:00000001FF
