:0400000086EF3FF058
:107F0C00000189EF3FF0000E8C6E000E0F015E6FCA
:107F1C0083808382000E8B6E000E5D6F9484240E22
:107F2C00BB6E0C0EBD6E010EBE6E9E92BA50FC0B5B
:107F3C000109BA6EBA849494000E056E010E046E9B
:107F4C00B4EF3FF004C0BEFF4E0E016EEB0EE82EF8
:107F5C00FED7012EFCD700F0044A052ABB50016E57
:107F6C00026A0150045C0550800A036E0250800ABC
:107F7C000358D8A0C4EF3FF0C6EF3FF0A8EF3FF096
:107F8C00080E026E9D0E016E060EE82EFED7012E17
:107F9C00FCD7022EFAD7BBCF04F0056AE3EF3FF013
:107FAC0004C0BEFF4E0E016EEB0EE82EFED7012E66
:107FBC00FCD700F00406D8A0050605BEF1EF3FF093
:107FCC00055007E1020E045CD8B0EFEF3FF0F1EF83
:107FDC003FF0D6EF3FF0080E026E9D0E016E060EBE
:107FEC00E82EFED7012EFCD7022EFAD7A2EF3FF0D7
:047FFC0000EF00F0A2
:020000040030CA
:0E0000000003583CFFD184FF0FC00FE00F40FB
:00000001FF
